{
  "contractName": "Healt",
  "abi": [
    {
      "inputs": [],
      "stateMutability": "nonpayable",
      "type": "constructor"
    },
    {
      "anonymous": false,
      "inputs": [
        {
          "indexed": true,
          "internalType": "address",
          "name": "owner",
          "type": "address"
        },
        {
          "indexed": true,
          "internalType": "address",
          "name": "viewer",
          "type": "address"
        },
        {
          "indexed": false,
          "internalType": "string",
          "name": "recordName",
          "type": "string"
        }
      ],
      "name": "Approval",
      "type": "event"
    },
    {
      "anonymous": false,
      "inputs": [
        {
          "indexed": false,
          "internalType": "string",
          "name": "recordName",
          "type": "string"
        },
        {
          "indexed": false,
          "internalType": "address",
          "name": "patientAddress",
          "type": "address"
        }
      ],
      "name": "PatientRecordAdded",
      "type": "event"
    },
    {
      "anonymous": false,
      "inputs": [
        {
          "indexed": true,
          "internalType": "address",
          "name": "owner",
          "type": "address"
        },
        {
          "indexed": true,
          "internalType": "address",
          "name": "viewer",
          "type": "address"
        },
        {
          "indexed": false,
          "internalType": "string",
          "name": "recordName",
          "type": "string"
        }
      ],
      "name": "unApproval",
      "type": "event"
    },
    {
      "anonymous": false,
      "inputs": [
        {
          "indexed": false,
          "internalType": "address",
          "name": "user",
          "type": "address"
        }
      ],
      "name": "userAddition",
      "type": "event"
    },
    {
      "inputs": [],
      "name": "owner",
      "outputs": [
        {
          "internalType": "address",
          "name": "",
          "type": "address"
        }
      ],
      "stateMutability": "view",
      "type": "function",
      "constant": true
    },
    {
      "inputs": [
        {
          "internalType": "address",
          "name": "",
          "type": "address"
        }
      ],
      "name": "user",
      "outputs": [
        {
          "internalType": "string",
          "name": "fullName",
          "type": "string"
        },
        {
          "internalType": "enum Healt.State",
          "name": "state",
          "type": "uint8"
        },
        {
          "internalType": "address",
          "name": "userAddress",
          "type": "address"
        }
      ],
      "stateMutability": "view",
      "type": "function",
      "constant": true
    },
    {
      "inputs": [
        {
          "internalType": "string",
          "name": "",
          "type": "string"
        },
        {
          "internalType": "address",
          "name": "",
          "type": "address"
        }
      ],
      "name": "viewRecord",
      "outputs": [
        {
          "internalType": "bool",
          "name": "",
          "type": "bool"
        }
      ],
      "stateMutability": "view",
      "type": "function",
      "constant": true
    },
    {
      "inputs": [
        {
          "internalType": "address",
          "name": "_address",
          "type": "address"
        },
        {
          "internalType": "string",
          "name": "_fullName",
          "type": "string"
        }
      ],
      "name": "addPatient",
      "outputs": [
        {
          "internalType": "bool",
          "name": "",
          "type": "bool"
        }
      ],
      "stateMutability": "nonpayable",
      "type": "function"
    },
    {
      "inputs": [
        {
          "internalType": "address",
          "name": "_address",
          "type": "address"
        },
        {
          "internalType": "string",
          "name": "_fullName",
          "type": "string"
        }
      ],
      "name": "addDoctor",
      "outputs": [
        {
          "internalType": "bool",
          "name": "",
          "type": "bool"
        }
      ],
      "stateMutability": "nonpayable",
      "type": "function"
    },
    {
      "inputs": [
        {
          "internalType": "string",
          "name": "_fullName",
          "type": "string"
        },
        {
          "internalType": "address",
          "name": "_patientAddress",
          "type": "address"
        },
        {
          "internalType": "address",
          "name": "_doctorAddress",
          "type": "address"
        },
        {
          "internalType": "string",
          "name": "_cc",
          "type": "string"
        },
        {
          "internalType": "string",
          "name": "_pi",
          "type": "string"
        },
        {
          "internalType": "string",
          "name": "_comment",
          "type": "string"
        },
        {
          "internalType": "string",
          "name": "_mh",
          "type": "string"
        },
        {
          "internalType": "string",
          "name": "_recordName",
          "type": "string"
        }
      ],
      "name": "addRecord",
      "outputs": [],
      "stateMutability": "nonpayable",
      "type": "function"
    },
    {
      "inputs": [
        {
          "internalType": "address",
          "name": "_address",
          "type": "address"
        },
        {
          "internalType": "string",
          "name": "_recordName",
          "type": "string"
        }
      ],
      "name": "getRecord",
      "outputs": [
        {
          "internalType": "string",
          "name": "_fullName",
          "type": "string"
        },
        {
          "internalType": "address",
          "name": "_doctorAddress",
          "type": "address"
        },
        {
          "internalType": "address",
          "name": "_patientAddress",
          "type": "address"
        },
        {
          "internalType": "string",
          "name": "_cc",
          "type": "string"
        },
        {
          "internalType": "string",
          "name": "_pi",
          "type": "string"
        },
        {
          "internalType": "string",
          "name": "_comment",
          "type": "string"
        },
        {
          "internalType": "string",
          "name": "_mh",
          "type": "string"
        }
      ],
      "stateMutability": "view",
      "type": "function",
      "constant": true
    },
    {
      "inputs": [
        {
          "internalType": "address",
          "name": "_patientAddress",
          "type": "address"
        },
        {
          "internalType": "address",
          "name": "_viewner",
          "type": "address"
        },
        {
          "internalType": "string",
          "name": "_recordName",
          "type": "string"
        }
      ],
      "name": "grantPermission",
      "outputs": [],
      "stateMutability": "nonpayable",
      "type": "function"
    },
    {
      "inputs": [
        {
          "internalType": "address",
          "name": "_patientAddress",
          "type": "address"
        },
        {
          "internalType": "address",
          "name": "_viewner",
          "type": "address"
        },
        {
          "internalType": "string",
          "name": "_recordName",
          "type": "string"
        }
      ],
      "name": "revorkPermission",
      "outputs": [],
      "stateMutability": "nonpayable",
      "type": "function"
    }
  ],
  "bytecode": "0x6080604052336000806101000a81548173ffffffffffffffffffffffffffffffffffffffff021916908373ffffffffffffffffffffffffffffffffffffffff16021790555034801561005057600080fd5b50336000806101000a81548173ffffffffffffffffffffffffffffffffffffffff021916908373ffffffffffffffffffffffffffffffffffffffff1602179055506000600181905550612a4a806100a86000396000f3fe608060405234801561001057600080fd5b50600436106100935760003560e01c806381e7e20e1161006657806381e7e20e146101305780638da5cb5b14610162578063bbaf36b514610180578063db66c060146101b6578063f5a9b019146101e657610093565b806350065b9814610098578063658a0011146100c85780636b16553e146100e45780637cf1e44514610100575b600080fd5b6100b260048036038101906100ad9190611e27565b610202565b6040516100bf919061222b565b60405180910390f35b6100e260048036038101906100dd9190611e83565b610247565b005b6100fe60048036038101906100f99190611d5c565b610725565b005b61011a60048036038101906101159190611dcb565b610bd9565b604051610127919061222b565b60405180910390f35b61014a60048036038101906101459190611d2f565b610e19565b6040516101599392919061232a565b60405180910390f35b61016a610ef8565b6040516101779190612210565b60405180910390f35b61019a60048036038101906101959190611dcb565b610f1c565b6040516101ad9796959493929190612298565b60405180910390f35b6101d060048036038101906101cb9190611dcb565b6116ad565b6040516101dd919061222b565b60405180910390f35b61020060048036038101906101fb9190611d5c565b6118da565b005b6004828051602081018201805184825260208301602085012081835280955050505050506020528060005260406000206000915091509054906101000a900460ff1681565b8560018081111561025b5761025a6126dc565b5b600260008373ffffffffffffffffffffffffffffffffffffffff1673ffffffffffffffffffffffffffffffffffffffff16815260200190815260200160002060010160009054906101000a900460ff1660018111156102bd576102bc6126dc565b5b146102fd576040517f08c379a00000000000000000000000000000000000000000000000000000000081526004016102f4906123c8565b60405180910390fd5b868073ffffffffffffffffffffffffffffffffffffffff163373ffffffffffffffffffffffffffffffffffffffff161461033657600080fd5b600073ffffffffffffffffffffffffffffffffffffffff16600260008a73ffffffffffffffffffffffffffffffffffffffff1673ffffffffffffffffffffffffffffffffffffffff16815260200190815260200160002060010160019054906101000a900473ffffffffffffffffffffffffffffffffffffffff1673ffffffffffffffffffffffffffffffffffffffff161415610408576040517f08c379a00000000000000000000000000000000000000000000000000000000081526004016103ff90612388565b60405180910390fd5b600073ffffffffffffffffffffffffffffffffffffffff16600260008b73ffffffffffffffffffffffffffffffffffffffff1673ffffffffffffffffffffffffffffffffffffffff16815260200190815260200160002060010160019054906101000a900473ffffffffffffffffffffffffffffffffffffffff1673ffffffffffffffffffffffffffffffffffffffff1614156104da576040517f08c379a00000000000000000000000000000000000000000000000000000000081526004016104d190612488565b60405180910390fd5b60006040518061010001604052808c81526020018b73ffffffffffffffffffffffffffffffffffffffff1681526020018a73ffffffffffffffffffffffffffffffffffffffff1681526020018981526020018881526020018781526020018681526020018581525090508060038560405161055591906121f9565b908152602001604051809103902060008c73ffffffffffffffffffffffffffffffffffffffff1673ffffffffffffffffffffffffffffffffffffffff16815260200190815260200160002060008201518160000190805190602001906105bc929190611c07565b5060208201518160010160006101000a81548173ffffffffffffffffffffffffffffffffffffffff021916908373ffffffffffffffffffffffffffffffffffffffff16021790555060408201518160020160006101000a81548173ffffffffffffffffffffffffffffffffffffffff021916908373ffffffffffffffffffffffffffffffffffffffff1602179055506060820151816003019080519060200190610667929190611c07565b506080820151816004019080519060200190610684929190611c07565b5060a08201518160050190805190602001906106a1929190611c07565b5060c08201518160060190805190602001906106be929190611c07565b5060e08201518160070190805190602001906106db929190611c07565b509050507f9a5d37c2375229a53861572fc892df32a454ed446cdc8dac87189cc1fa306e0a848b604051610710929190612268565b60405180910390a15050505050505050505050565b600073ffffffffffffffffffffffffffffffffffffffff16600260008473ffffffffffffffffffffffffffffffffffffffff1673ffffffffffffffffffffffffffffffffffffffff16815260200190815260200160002060010160019054906101000a900473ffffffffffffffffffffffffffffffffffffffff1673ffffffffffffffffffffffffffffffffffffffff1614156107f7576040517f08c379a00000000000000000000000000000000000000000000000000000000081526004016107ee90612448565b60405180910390fd5b60018081111561080a576108096126dc565b5b600260008473ffffffffffffffffffffffffffffffffffffffff1673ffffffffffffffffffffffffffffffffffffffff16815260200190815260200160002060010160009054906101000a900460ff16600181111561086c5761086b6126dc565b5b146108ac576040517f08c379a00000000000000000000000000000000000000000000000000000000081526004016108a3906123a8565b60405180910390fd5b6003816040516108bc91906121f9565b908152602001604051809103902060008473ffffffffffffffffffffffffffffffffffffffff1673ffffffffffffffffffffffffffffffffffffffff16815260200190815260200160002060010160009054906101000a900473ffffffffffffffffffffffffffffffffffffffff1673ffffffffffffffffffffffffffffffffffffffff163373ffffffffffffffffffffffffffffffffffffffff161480610a0d575060038160405161096f91906121f9565b908152602001604051809103902060008473ffffffffffffffffffffffffffffffffffffffff1673ffffffffffffffffffffffffffffffffffffffff16815260200190815260200160002060020160009054906101000a900473ffffffffffffffffffffffffffffffffffffffff1673ffffffffffffffffffffffffffffffffffffffff163373ffffffffffffffffffffffffffffffffffffffff16145b610a4c576040517f08c379a0000000000000000000000000000000000000000000000000000000008152600401610a4390612468565b60405180910390fd5b60001515600482604051610a6091906121f9565b908152602001604051809103902060008473ffffffffffffffffffffffffffffffffffffffff1673ffffffffffffffffffffffffffffffffffffffff16815260200190815260200160002060009054906101000a900460ff16151514610afb576040517f08c379a0000000000000000000000000000000000000000000000000000000008152600401610af290612368565b60405180910390fd5b6001600482604051610b0d91906121f9565b908152602001604051809103902060008473ffffffffffffffffffffffffffffffffffffffff1673ffffffffffffffffffffffffffffffffffffffff16815260200190815260200160002060006101000a81548160ff0219169083151502179055508173ffffffffffffffffffffffffffffffffffffffff163373ffffffffffffffffffffffffffffffffffffffff167f1f84ad2a44b444ff59c84b14c29a0515df82fffbd26a5a923e601d8302872c9183604051610bcc9190612246565b60405180910390a3505050565b60008073ffffffffffffffffffffffffffffffffffffffff16600260008573ffffffffffffffffffffffffffffffffffffffff1673ffffffffffffffffffffffffffffffffffffffff16815260200190815260200160002060010160019054906101000a900473ffffffffffffffffffffffffffffffffffffffff1673ffffffffffffffffffffffffffffffffffffffff1614610cab576040517f08c379a0000000000000000000000000000000000000000000000000000000008152600401610ca2906124a8565b60405180910390fd5b6040518060600160405280838152602001600180811115610ccf57610cce6126dc565b5b81526020018473ffffffffffffffffffffffffffffffffffffffff16815250600260008573ffffffffffffffffffffffffffffffffffffffff1673ffffffffffffffffffffffffffffffffffffffff1681526020019081526020016000206000820151816000019080519060200190610d49929190611c07565b5060208201518160010160006101000a81548160ff02191690836001811115610d7557610d746126dc565b5b021790555060408201518160010160016101000a81548173ffffffffffffffffffffffffffffffffffffffff021916908373ffffffffffffffffffffffffffffffffffffffff16021790555090505060018054610dd29190612545565b6001819055507fc37330a6193f3b9e88961c5fbfa254648a2df8f3a1dfeac699a39346e6aed8d383604051610e079190612210565b60405180910390a16001905092915050565b6002602052806000526040600020600091509050806000018054610e3c9061264a565b80601f0160208091040260200160405190810160405280929190818152602001828054610e689061264a565b8015610eb55780601f10610e8a57610100808354040283529160200191610eb5565b820191906000526020600020905b815481529060010190602001808311610e9857829003601f168201915b5050505050908060010160009054906101000a900460ff16908060010160019054906101000a900473ffffffffffffffffffffffffffffffffffffffff16905083565b60008054906101000a900473ffffffffffffffffffffffffffffffffffffffff1681565b60606000806060806060808873ffffffffffffffffffffffffffffffffffffffff16600389604051610f4e91906121f9565b908152602001604051809103902060008b73ffffffffffffffffffffffffffffffffffffffff1673ffffffffffffffffffffffffffffffffffffffff16815260200190815260200160002060010160009054906101000a900473ffffffffffffffffffffffffffffffffffffffff1673ffffffffffffffffffffffffffffffffffffffff1614611013576040517f08c379a000000000000000000000000000000000000000000000000000000000815260040161100a906123e8565b60405180910390fd5b3373ffffffffffffffffffffffffffffffffffffffff1660038960405161103a91906121f9565b908152602001604051809103902060008b73ffffffffffffffffffffffffffffffffffffffff1673ffffffffffffffffffffffffffffffffffffffff16815260200190815260200160002060010160009054906101000a900473ffffffffffffffffffffffffffffffffffffffff1673ffffffffffffffffffffffffffffffffffffffff16148061117457503373ffffffffffffffffffffffffffffffffffffffff166003896040516110ed91906121f9565b908152602001604051809103902060008b73ffffffffffffffffffffffffffffffffffffffff1673ffffffffffffffffffffffffffffffffffffffff16815260200190815260200160002060020160009054906101000a900473ffffffffffffffffffffffffffffffffffffffff1673ffffffffffffffffffffffffffffffffffffffff16145b806111eb57506001151560048960405161118e91906121f9565b908152602001604051809103902060003373ffffffffffffffffffffffffffffffffffffffff1673ffffffffffffffffffffffffffffffffffffffff16815260200190815260200160002060009054906101000a900460ff161515145b5060006003896040516111fe91906121f9565b908152602001604051809103902060008b73ffffffffffffffffffffffffffffffffffffffff1673ffffffffffffffffffffffffffffffffffffffff168152602001908152602001600020604051806101000160405290816000820180546112659061264a565b80601f01602080910402602001604051908101604052809291908181526020018280546112919061264a565b80156112de5780601f106112b3576101008083540402835291602001916112de565b820191906000526020600020905b8154815290600101906020018083116112c157829003601f168201915b505050505081526020016001820160009054906101000a900473ffffffffffffffffffffffffffffffffffffffff1673ffffffffffffffffffffffffffffffffffffffff1673ffffffffffffffffffffffffffffffffffffffff1681526020016002820160009054906101000a900473ffffffffffffffffffffffffffffffffffffffff1673ffffffffffffffffffffffffffffffffffffffff1673ffffffffffffffffffffffffffffffffffffffff1681526020016003820180546113a39061264a565b80601f01602080910402602001604051908101604052809291908181526020018280546113cf9061264a565b801561141c5780601f106113f15761010080835404028352916020019161141c565b820191906000526020600020905b8154815290600101906020018083116113ff57829003601f168201915b505050505081526020016004820180546114359061264a565b80601f01602080910402602001604051908101604052809291908181526020018280546114619061264a565b80156114ae5780601f10611483576101008083540402835291602001916114ae565b820191906000526020600020905b81548152906001019060200180831161149157829003601f168201915b505050505081526020016005820180546114c79061264a565b80601f01602080910402602001604051908101604052809291908181526020018280546114f39061264a565b80156115405780601f1061151557610100808354040283529160200191611540565b820191906000526020600020905b81548152906001019060200180831161152357829003601f168201915b505050505081526020016006820180546115599061264a565b80601f01602080910402602001604051908101604052809291908181526020018280546115859061264a565b80156115d25780601f106115a7576101008083540402835291602001916115d2565b820191906000526020600020905b8154815290600101906020018083116115b557829003601f168201915b505050505081526020016007820180546115eb9061264a565b80601f01602080910402602001604051908101604052809291908181526020018280546116179061264a565b80156116645780601f1061163957610100808354040283529160200191611664565b820191906000526020600020905b81548152906001019060200180831161164757829003601f168201915b5050505050815250509050806000015181602001518260400151836060015184608001518560a001518660c0015197509750975097509750975097505092959891949750929550565b60008073ffffffffffffffffffffffffffffffffffffffff16600260008573ffffffffffffffffffffffffffffffffffffffff1673ffffffffffffffffffffffffffffffffffffffff16815260200190815260200160002060010160019054906101000a900473ffffffffffffffffffffffffffffffffffffffff1673ffffffffffffffffffffffffffffffffffffffff161461177f576040517f08c379a0000000000000000000000000000000000000000000000000000000008152600401611776906124a8565b60405180910390fd5b6040518060600160405280838152602001600060018111156117a4576117a36126dc565b5b81526020018473ffffffffffffffffffffffffffffffffffffffff16815250600260008573ffffffffffffffffffffffffffffffffffffffff1673ffffffffffffffffffffffffffffffffffffffff168152602001908152602001600020600082015181600001908051906020019061181e929190611c07565b5060208201518160010160006101000a81548160ff0219169083600181111561184a576118496126dc565b5b021790555060408201518160010160016101000a81548173ffffffffffffffffffffffffffffffffffffffff021916908373ffffffffffffffffffffffffffffffffffffffff1602179055509050507fc37330a6193f3b9e88961c5fbfa254648a2df8f3a1dfeac699a39346e6aed8d3836040516118c89190612210565b60405180910390a16001905092915050565b6003816040516118ea91906121f9565b908152602001604051809103902060008473ffffffffffffffffffffffffffffffffffffffff1673ffffffffffffffffffffffffffffffffffffffff16815260200190815260200160002060010160009054906101000a900473ffffffffffffffffffffffffffffffffffffffff1673ffffffffffffffffffffffffffffffffffffffff163373ffffffffffffffffffffffffffffffffffffffff161480611a3b575060038160405161199d91906121f9565b908152602001604051809103902060008473ffffffffffffffffffffffffffffffffffffffff1673ffffffffffffffffffffffffffffffffffffffff16815260200190815260200160002060020160009054906101000a900473ffffffffffffffffffffffffffffffffffffffff1673ffffffffffffffffffffffffffffffffffffffff163373ffffffffffffffffffffffffffffffffffffffff16145b611a7a576040517f08c379a0000000000000000000000000000000000000000000000000000000008152600401611a7190612408565b60405180910390fd5b60011515600482604051611a8e91906121f9565b908152602001604051809103902060008473ffffffffffffffffffffffffffffffffffffffff1673ffffffffffffffffffffffffffffffffffffffff16815260200190815260200160002060009054906101000a900460ff16151514611b29576040517f08c379a0000000000000000000000000000000000000000000000000000000008152600401611b2090612428565b60405180910390fd5b6000600482604051611b3b91906121f9565b908152602001604051809103902060008473ffffffffffffffffffffffffffffffffffffffff1673ffffffffffffffffffffffffffffffffffffffff16815260200190815260200160002060006101000a81548160ff0219169083151502179055508173ffffffffffffffffffffffffffffffffffffffff163373ffffffffffffffffffffffffffffffffffffffff167ff80db2d4c7dfd716d0c8cbb9249fe5d522919dd84ecd6a33378e429072cb889083604051611bfa9190612246565b60405180910390a3505050565b828054611c139061264a565b90600052602060002090601f016020900481019282611c355760008555611c7c565b82601f10611c4e57805160ff1916838001178555611c7c565b82800160010185558215611c7c579182015b82811115611c7b578251825591602001919060010190611c60565b5b509050611c899190611c8d565b5090565b5b80821115611ca6576000816000905550600101611c8e565b5090565b6000611cbd611cb8846124ed565b6124c8565b905082815260208101848484011115611cd957611cd861276e565b5b611ce4848285612608565b509392505050565b600081359050611cfb816129fd565b92915050565b600082601f830112611d1657611d15612769565b5b8135611d26848260208601611caa565b91505092915050565b600060208284031215611d4557611d44612778565b5b6000611d5384828501611cec565b91505092915050565b600080600060608486031215611d7557611d74612778565b5b6000611d8386828701611cec565b9350506020611d9486828701611cec565b925050604084013567ffffffffffffffff811115611db557611db4612773565b5b611dc186828701611d01565b9150509250925092565b60008060408385031215611de257611de1612778565b5b6000611df085828601611cec565b925050602083013567ffffffffffffffff811115611e1157611e10612773565b5b611e1d85828601611d01565b9150509250929050565b60008060408385031215611e3e57611e3d612778565b5b600083013567ffffffffffffffff811115611e5c57611e5b612773565b5b611e6885828601611d01565b9250506020611e7985828601611cec565b9150509250929050565b600080600080600080600080610100898b031215611ea457611ea3612778565b5b600089013567ffffffffffffffff811115611ec257611ec1612773565b5b611ece8b828c01611d01565b9850506020611edf8b828c01611cec565b9750506040611ef08b828c01611cec565b965050606089013567ffffffffffffffff811115611f1157611f10612773565b5b611f1d8b828c01611d01565b955050608089013567ffffffffffffffff811115611f3e57611f3d612773565b5b611f4a8b828c01611d01565b94505060a089013567ffffffffffffffff811115611f6b57611f6a612773565b5b611f778b828c01611d01565b93505060c089013567ffffffffffffffff811115611f9857611f97612773565b5b611fa48b828c01611d01565b92505060e089013567ffffffffffffffff811115611fc557611fc4612773565b5b611fd18b828c01611d01565b9150509295985092959890939650565b611fea8161259b565b82525050565b611ff9816125ad565b82525050565b612008816125f6565b82525050565b60006120198261251e565b6120238185612529565b9350612033818560208601612617565b61203c8161277d565b840191505092915050565b60006120528261251e565b61205c818561253a565b935061206c818560208601612617565b80840191505092915050565b6000612085601c83612529565b91506120908261278e565b602082019050919050565b60006120a8603883612529565b91506120b3826127b7565b604082019050919050565b60006120cb601a83612529565b91506120d682612806565b602082019050919050565b60006120ee601283612529565b91506120f98261282f565b602082019050919050565b6000612111601283612529565b915061211c82612858565b602082019050919050565b6000612134602d83612529565b915061213f82612881565b604082019050919050565b6000612157601383612529565b9150612162826128d0565b602082019050919050565b600061217a601683612529565b9150612185826128f9565b602082019050919050565b600061219d602b83612529565b91506121a882612922565b604082019050919050565b60006121c0603983612529565b91506121cb82612971565b604082019050919050565b60006121e3600d83612529565b91506121ee826129c0565b602082019050919050565b60006122058284612047565b915081905092915050565b60006020820190506122256000830184611fe1565b92915050565b60006020820190506122406000830184611ff0565b92915050565b60006020820190508181036000830152612260818461200e565b905092915050565b60006040820190508181036000830152612282818561200e565b90506122916020830184611fe1565b9392505050565b600060e08201905081810360008301526122b2818a61200e565b90506122c16020830189611fe1565b6122ce6040830188611fe1565b81810360608301526122e0818761200e565b905081810360808301526122f4818661200e565b905081810360a0830152612308818561200e565b905081810360c083015261231c818461200e565b905098975050505050505050565b60006060820190508181036000830152612344818661200e565b90506123536020830185611fff565b6123606040830184611fe1565b949350505050565b6000602082019050818103600083015261238181612078565b9050919050565b600060208201905081810360008301526123a18161209b565b9050919050565b600060208201905081810360008301526123c1816120be565b9050919050565b600060208201905081810360008301526123e1816120e1565b9050919050565b6000602082019050818103600083015261240181612104565b9050919050565b6000602082019050818103600083015261242181612127565b9050919050565b600060208201905081810360008301526124418161214a565b9050919050565b600060208201905081810360008301526124618161216d565b9050919050565b6000602082019050818103600083015261248181612190565b9050919050565b600060208201905081810360008301526124a1816121b3565b9050919050565b600060208201905081810360008301526124c1816121d6565b9050919050565b60006124d26124e3565b90506124de828261267c565b919050565b6000604051905090565b600067ffffffffffffffff8211156125085761250761273a565b5b6125118261277d565b9050602081019050919050565b600081519050919050565b600082825260208201905092915050565b600081905092915050565b6000612550826125ec565b915061255b836125ec565b9250827fffffffffffffffffffffffffffffffffffffffffffffffffffffffffffffffff038211156125905761258f6126ad565b5b828201905092915050565b60006125a6826125cc565b9050919050565b60008115159050919050565b60008190506125c7826129e9565b919050565b600073ffffffffffffffffffffffffffffffffffffffff82169050919050565b6000819050919050565b6000612601826125b9565b9050919050565b82818337600083830152505050565b60005b8381101561263557808201518184015260208101905061261a565b83811115612644576000848401525b50505050565b6000600282049050600182168061266257607f821691505b602082108114156126765761267561270b565b5b50919050565b6126858261277d565b810181811067ffffffffffffffff821117156126a4576126a361273a565b5b80604052505050565b7f4e487b7100000000000000000000000000000000000000000000000000000000600052601160045260246000fd5b7f4e487b7100000000000000000000000000000000000000000000000000000000600052602160045260246000fd5b7f4e487b7100000000000000000000000000000000000000000000000000000000600052602260045260246000fd5b7f4e487b7100000000000000000000000000000000000000000000000000000000600052604160045260246000fd5b600080fd5b600080fd5b600080fd5b600080fd5b6000601f19601f8301169050919050565b7f416c7265616479206861732076696577696e6720726967687473212100000000600082015250565b7f54686520646f63746f7241646472657373206973206e6f74206e6f7468696e6760008201527f202c666972737420637265617465206120616464726573730000000000000000602082015250565b7f566965776e65722073686f756c64206265206120646f63746f72000000000000600082015250565b7f55736572206973206e6f7420646f63746f720000000000000000000000000000600082015250565b7f207265636f7264206973206e6f7468696e670000000000000000000000000000600082015250565b7f4f6e6c792070617469656e7420616e6420646f63746f722063616e207265766f60008201527f726b207065726d697373696f6e00000000000000000000000000000000000000602082015250565b7f4e6f206e65656420746f207265766f6b65212100000000000000000000000000600082015250565b7f566965776e6572206e6f74207265676973746572656400000000000000000000600082015250565b7f4f6e6c792070617469656e7420616e6420646f63746f722063616e206769766560008201527f207065726d697373696f6e000000000000000000000000000000000000000000602082015250565b7f5468652070617469656e7441646472657373206973206e6f74206e6f7468696e60008201527f67202c6669727374206372656174652061206164647265737300000000000000602082015250565b7f416c726561647920657869737400000000000000000000000000000000000000600082015250565b600281106129fa576129f96126dc565b5b50565b612a068161259b565b8114612a1157600080fd5b5056fea2646970667358221220238c9bfcd025833910807c60fdac990ab3f903642aa45923c4d50133e14e12cc64736f6c63430008070033",
  "immutableReferences": {},
  "source": "// SPDX-License-Identifier: MIT\npragma solidity >=0.5.16 <0.9.0;\n\ncontract Healt {\n //  variables\n  address public owner = msg.sender;\n  uint userCount;\n  \n\n// enum\n  enum State{\n      Patient,\n      Doctor\n  }\n  // struct\n  struct User{\n      string fullName;\n      State state;\n      address userAddress;\n  }\n   struct Record{\n        string fullName;\n        address patientAddress;\n        address doctorAddress;\n        string cc;\n        string pi;\n        string comment;\n        string mh;\n        string recordName;\n    }\n    \n    // mapping\n  mapping (address => User)public user;\n  \n  mapping (string => mapping (address => Record))private record;\n  \n  // Mapping from record name to approved address\n  mapping (string => mapping (address => bool)) public viewRecord;\n    \n  \n  \n  /* \n   * Events\n   */\n   event userAddition(address user);\n   event PatientRecordAdded(string recordName, address patientAddress);\n   event Approval(address indexed owner, address indexed viewer, string recordName);\n   event unApproval(address indexed owner, address indexed viewer, string recordName);\n\n  \nconstructor(){\n    owner = msg.sender;\n    userCount =0;\n    \n}\n\n  /* \n   * Modifiers\n   */\n\n   modifier isOwner () { \n    require (owner == msg.sender,'\"Caller is not owner\"' ); \n    _;\n  }\n\n  modifier verifyCaller (address _address) { \n    require (msg.sender == _address); \n    _;\n  }\n\n   modifier isDoctor(address _address){\n       \n       require(user[_address].state == State.Doctor,\"User is not doctor\");\n       _;\n   }\n   modifier isPatient(address _address){\n        \n       require(user[_address].state == State.Patient,\"User is not patient\");\n       _;\n   } \n\n \n      //functions\n  function addPatient( address _address, string memory _fullName) public returns (bool) {\n         require(user[_address].userAddress == address(0),\"Already exist\");\n    user[_address] = User({\n     fullName: _fullName, \n     state: State.Patient, \n     userAddress: _address\n    });\n   \n   emit userAddition(_address);\n    return true;\n  }\n  function addDoctor( address _address, string memory _fullName) public returns (bool) {\n    require(user[_address].userAddress == address(0),\"Already exist\");\n    user[_address] = User({\n     fullName: _fullName, \n     state: State.Doctor, \n     userAddress: _address\n    });\n   \n   userCount = userCount + 1;\n   emit userAddition(_address);\n    return true;\n  }\n \n // \n // modifiers to ckeck the user is doctor  \n // and check the user calling this function is the doctor\n  function addRecord(string memory _fullName,address _patientAddress , address _doctorAddress ,\n  string memory _cc ,string memory _pi ,string memory _comment ,string memory _mh,\n  string memory _recordName) public isDoctor(_doctorAddress) verifyCaller(_doctorAddress){\n     \n      require(user[_doctorAddress].userAddress != address(0), \"The doctorAddress is not nothing ,first create a address\");\n      require(user[_patientAddress].userAddress != address(0), \"The patientAddress is not nothing ,first create a address\");\n      \n      Record memory newRecord = Record( _fullName,_patientAddress,\n      \n      _doctorAddress,_cc,_pi,_comment , _mh , _recordName );\n         record[_recordName][_patientAddress]=newRecord;\n         \n      emit PatientRecordAdded(_recordName, _patientAddress);\n  }\n  // getRecord\n\n  function getRecord(address _address,\n  string memory _recordName)view public\n  returns(string memory _fullName , address _doctorAddress,address _patientAddress,\n  string memory _cc , string memory _pi  ,string memory _comment,string memory _mh)\n  {\n      \n       require(record[_recordName][_address].patientAddress == _address \n      ,\" record is nothing\");\n      \n      // in 3 state we can get record 1: the patient is the owner of the record \n      // 2: be doctor an add record 3: have Permission for get record.\n      ((record[_recordName][_address].patientAddress == msg.sender )||(record[_recordName][_address].doctorAddress == msg.sender)||\n      (viewRecord[_recordName][msg.sender] == true),\" the doctor and the user have pemission can view \");\n      \n      // return the record of patient\n       Record memory s =record[_recordName][_address];\n       \n        return(s.fullName,s.patientAddress, s.doctorAddress,s.cc,s.pi,s.comment,s.mh);\n  }\n  \n  // grantPermission\n  \n  function grantPermission(address _patientAddress,address _viewner, string memory _recordName  )\n  public \n   {\n       \n       // check the viewner is accsesed \n       require(user[_viewner].userAddress != address(0),\"Viewner not registered\");\n       //\n       require(user[_viewner].state == State.Doctor,\"Viewner should be a doctor\");\n       \n       // the person calling this function is the patient or doctor ( just is the owner of the record\n       // or doctor can grant permission)\n    \n       require(( msg.sender == record[_recordName][_patientAddress].patientAddress)||\n       (msg.sender ==record[_recordName][_patientAddress].doctorAddress)\n       ,\"Only patient and doctor can give permission\");\n       \n       require(viewRecord[_recordName][_viewner] == false, \"Already has viewing rights!!\");\n       \n        viewRecord[_recordName][_viewner]= true;\n        \n        emit Approval(msg.sender, _viewner, _recordName);\n        \n    }\n    \n    //revorkPermission \n  \n  function revorkPermission (address _patientAddress,address _viewner, \n  string memory _recordName) public{\n       \n       require(( msg.sender == record[_recordName][_patientAddress].patientAddress)||\n       (msg.sender ==record[_recordName][_patientAddress].doctorAddress)\n       ,\"Only patient and doctor can revork permission\");\n       require(viewRecord[_recordName][_viewner] == true, \"No need to revoke!!\");\n       \n      viewRecord[_recordName][_viewner]= false;\n      emit unApproval(msg.sender, _viewner, _recordName);\n  }   \n\n    \n}\n",
  "sourcePath": "/home/sodaba/blockchain-developer-bootcamp-final-project/backEnd/contracts/Healt.sol",
  "compiler": {
    "name": "solc",
    "version": "0.8.7+commit.e28d00a7.Emscripten.clang"
  },
  "schemaVersion": "3.4.3",
  "updatedAt": "2021-11-20T07:52:15.470Z",
  "networkType": "ethereum",
  "devdoc": {
    "kind": "dev",
    "methods": {},
    "version": 1
  },
  "userdoc": {
    "kind": "user",
    "methods": {},
    "version": 1
  }
}