{
  "contractName": "Healt",
  "abi": [
    {
      "inputs": [],
      "stateMutability": "nonpayable",
      "type": "constructor"
    },
    {
      "anonymous": false,
      "inputs": [
        {
          "indexed": true,
          "internalType": "address",
          "name": "owner",
          "type": "address"
        },
        {
          "indexed": true,
          "internalType": "address",
          "name": "viewer",
          "type": "address"
        },
        {
          "indexed": false,
          "internalType": "uint256",
          "name": "recordId",
          "type": "uint256"
        }
      ],
      "name": "Approval",
      "type": "event"
    },
    {
      "anonymous": false,
      "inputs": [
        {
          "indexed": false,
          "internalType": "uint256",
          "name": "recordId",
          "type": "uint256"
        },
        {
          "indexed": false,
          "internalType": "address",
          "name": "patientAddress",
          "type": "address"
        }
      ],
      "name": "PatientRecordAdded",
      "type": "event"
    },
    {
      "anonymous": false,
      "inputs": [
        {
          "indexed": true,
          "internalType": "address",
          "name": "owner",
          "type": "address"
        },
        {
          "indexed": true,
          "internalType": "address",
          "name": "viewer",
          "type": "address"
        },
        {
          "indexed": false,
          "internalType": "uint256",
          "name": "recordId",
          "type": "uint256"
        }
      ],
      "name": "unApproval",
      "type": "event"
    },
    {
      "anonymous": false,
      "inputs": [
        {
          "indexed": false,
          "internalType": "address",
          "name": "user",
          "type": "address"
        }
      ],
      "name": "userAddition",
      "type": "event"
    },
    {
      "inputs": [],
      "name": "owner",
      "outputs": [
        {
          "internalType": "address",
          "name": "",
          "type": "address"
        }
      ],
      "stateMutability": "view",
      "type": "function"
    },
    {
      "inputs": [
        {
          "internalType": "address",
          "name": "",
          "type": "address"
        }
      ],
      "name": "user",
      "outputs": [
        {
          "internalType": "string",
          "name": "fullName",
          "type": "string"
        },
        {
          "internalType": "enum Healt.State",
          "name": "state",
          "type": "uint8"
        },
        {
          "internalType": "address",
          "name": "userAddress",
          "type": "address"
        }
      ],
      "stateMutability": "view",
      "type": "function"
    },
    {
      "inputs": [
        {
          "internalType": "uint256",
          "name": "",
          "type": "uint256"
        },
        {
          "internalType": "address",
          "name": "",
          "type": "address"
        }
      ],
      "name": "viewRecord",
      "outputs": [
        {
          "internalType": "bool",
          "name": "",
          "type": "bool"
        }
      ],
      "stateMutability": "view",
      "type": "function"
    },
    {
      "inputs": [
        {
          "internalType": "address",
          "name": "_patientAddress",
          "type": "address"
        },
        {
          "internalType": "string",
          "name": "_fullName",
          "type": "string"
        }
      ],
      "name": "addPatient",
      "outputs": [
        {
          "internalType": "bool",
          "name": "",
          "type": "bool"
        }
      ],
      "stateMutability": "nonpayable",
      "type": "function"
    },
    {
      "inputs": [
        {
          "internalType": "address",
          "name": "_doctorAddress",
          "type": "address"
        },
        {
          "internalType": "string",
          "name": "_fullName",
          "type": "string"
        }
      ],
      "name": "addDoctor",
      "outputs": [
        {
          "internalType": "bool",
          "name": "",
          "type": "bool"
        }
      ],
      "stateMutability": "nonpayable",
      "type": "function"
    },
    {
      "inputs": [
        {
          "internalType": "string",
          "name": "_fullName",
          "type": "string"
        },
        {
          "internalType": "address",
          "name": "_patientAddress",
          "type": "address"
        },
        {
          "internalType": "address",
          "name": "_doctorAddress",
          "type": "address"
        },
        {
          "internalType": "string",
          "name": "_cc",
          "type": "string"
        },
        {
          "internalType": "string",
          "name": "_pi",
          "type": "string"
        },
        {
          "internalType": "string",
          "name": "_comment",
          "type": "string"
        },
        {
          "internalType": "string",
          "name": "_mh",
          "type": "string"
        },
        {
          "internalType": "uint256",
          "name": "_recordId",
          "type": "uint256"
        }
      ],
      "name": "addRecord",
      "outputs": [],
      "stateMutability": "nonpayable",
      "type": "function"
    },
    {
      "inputs": [
        {
          "internalType": "address",
          "name": "_address",
          "type": "address"
        },
        {
          "internalType": "uint256",
          "name": "_recordId",
          "type": "uint256"
        }
      ],
      "name": "getRecord",
      "outputs": [
        {
          "internalType": "string",
          "name": "_fullName",
          "type": "string"
        },
        {
          "internalType": "address",
          "name": "_doctorAddress",
          "type": "address"
        },
        {
          "internalType": "address",
          "name": "_patientAddress",
          "type": "address"
        },
        {
          "internalType": "string",
          "name": "_cc",
          "type": "string"
        },
        {
          "internalType": "string",
          "name": "_pi",
          "type": "string"
        },
        {
          "internalType": "string",
          "name": "_comment",
          "type": "string"
        },
        {
          "internalType": "string",
          "name": "_mh",
          "type": "string"
        }
      ],
      "stateMutability": "view",
      "type": "function"
    },
    {
      "inputs": [
        {
          "internalType": "address",
          "name": "_patientAddress",
          "type": "address"
        },
        {
          "internalType": "address",
          "name": "_viewner",
          "type": "address"
        },
        {
          "internalType": "uint256",
          "name": "_recordId",
          "type": "uint256"
        }
      ],
      "name": "grantPermission",
      "outputs": [],
      "stateMutability": "nonpayable",
      "type": "function"
    },
    {
      "inputs": [
        {
          "internalType": "address",
          "name": "_patientAddress",
          "type": "address"
        },
        {
          "internalType": "address",
          "name": "_viewner",
          "type": "address"
        },
        {
          "internalType": "uint256",
          "name": "_recordId",
          "type": "uint256"
        }
      ],
      "name": "revorkPermission",
      "outputs": [],
      "stateMutability": "nonpayable",
      "type": "function"
    },
    {
      "inputs": [
        {
          "internalType": "address",
          "name": "_address",
          "type": "address"
        }
      ],
      "name": "recordOf",
      "outputs": [
        {
          "internalType": "uint256",
          "name": "",
          "type": "uint256"
        }
      ],
      "stateMutability": "view",
      "type": "function"
    },
    {
      "inputs": [
        {
          "internalType": "uint256",
          "name": "recordId",
          "type": "uint256"
        }
      ],
      "name": "ownerOfRecord",
      "outputs": [
        {
          "internalType": "address",
          "name": "",
          "type": "address"
        }
      ],
      "stateMutability": "view",
      "type": "function"
    }
  ],
  "bytecode": "0x6080604052336000806101000a81548173ffffffffffffffffffffffffffffffffffffffff021916908373ffffffffffffffffffffffffffffffffffffffff16021790555034801561005057600080fd5b50336000806101000a81548173ffffffffffffffffffffffffffffffffffffffff021916908373ffffffffffffffffffffffffffffffffffffffff16021790555060006001819055506130e5806100a86000396000f3fe608060405234801561001057600080fd5b50600436106100a95760003560e01c8063c5bf2c5b11610071578063c5bf2c5b1461018e578063c7e3fd74146101be578063cdb8acf0146101da578063db66c06014610210578063e2f3f7e314610240578063f4322f3b1461025c576100a9565b80637cf1e445146100ae57806381e7e20e146100de5780638da5cb5b14610110578063b034ec341461012e578063c06ac6a31461015e575b600080fd5b6100c860048036038101906100c39190612234565b610278565b6040516100d591906126f9565b60405180910390f35b6100f860048036038101906100f391906121b4565b6104b8565b604051610107939291906127c8565b60405180910390f35b610118610597565b60405161012591906126de565b60405180910390f35b61014860048036038101906101439190612412565b6105bb565b60405161015591906126de565b60405180910390f35b610178600480360381019061017391906121b4565b6105f2565b60405161018591906129c6565b60405180910390f35b6101a860048036038101906101a3919061243f565b6106b1565b6040516101b591906126f9565b60405180910390f35b6101d860048036038101906101d391906122d0565b6106e0565b005b6101f460048036038101906101ef9190612290565b610c90565b6040516102079796959493929190612736565b60405180910390f35b61022a60048036038101906102259190612234565b6113a0565b60405161023791906126f9565b60405180910390f35b61025a600480360381019061025591906121e1565b6115cd565b005b610276600480360381019061027191906121e1565b6118ce565b005b60008073ffffffffffffffffffffffffffffffffffffffff16600260008573ffffffffffffffffffffffffffffffffffffffff1673ffffffffffffffffffffffffffffffffffffffff16815260200190815260200160002060010160019054906101000a900473ffffffffffffffffffffffffffffffffffffffff1673ffffffffffffffffffffffffffffffffffffffff161461034a576040517f08c379a0000000000000000000000000000000000000000000000000000000008152600401610341906129a6565b60405180910390fd5b604051806060016040528083815260200160018081111561036e5761036d612c47565b5b81526020018473ffffffffffffffffffffffffffffffffffffffff16815250600260008573ffffffffffffffffffffffffffffffffffffffff1673ffffffffffffffffffffffffffffffffffffffff16815260200190815260200160002060008201518160000190805190602001906103e8929190612077565b5060208201518160010160006101000a81548160ff0219169083600181111561041457610413612c47565b5b021790555060408201518160010160016101000a81548173ffffffffffffffffffffffffffffffffffffffff021916908373ffffffffffffffffffffffffffffffffffffffff160217905550905050600180546104719190612a7c565b6001819055507fc37330a6193f3b9e88961c5fbfa254648a2df8f3a1dfeac699a39346e6aed8d3836040516104a691906126de565b60405180910390a16001905092915050565b60026020528060005260406000206000915090508060000180546104db90612bb5565b80601f016020809104026020016040519081016040528092919081815260200182805461050790612bb5565b80156105545780601f1061052957610100808354040283529160200191610554565b820191906000526020600020905b81548152906001019060200180831161053757829003601f168201915b5050505050908060010160009054906101000a900460ff16908060010160019054906101000a900473ffffffffffffffffffffffffffffffffffffffff16905083565b60008054906101000a900473ffffffffffffffffffffffffffffffffffffffff1681565b60006105eb8260405180606001604052806023815260200161308d602391396006611d569092919063ffffffff16565b9050919050565b60008073ffffffffffffffffffffffffffffffffffffffff168273ffffffffffffffffffffffffffffffffffffffff161415610663576040517f08c379a000000000000000000000000000000000000000000000000000000000815260040161065a90612846565b60405180910390fd5b6106aa600560008473ffffffffffffffffffffffffffffffffffffffff1673ffffffffffffffffffffffffffffffffffffffff168152602001908152602001600020611d75565b9050919050565b60046020528160005260406000206020528060005260406000206000915091509054906101000a900460ff1681565b856001808111156106f4576106f3612c47565b5b600260008373ffffffffffffffffffffffffffffffffffffffff1673ffffffffffffffffffffffffffffffffffffffff16815260200190815260200160002060010160009054906101000a900460ff16600181111561075657610755612c47565b5b14610796576040517f08c379a000000000000000000000000000000000000000000000000000000000815260040161078d906128a6565b60405180910390fd5b868073ffffffffffffffffffffffffffffffffffffffff163373ffffffffffffffffffffffffffffffffffffffff16146107cf57600080fd5b82898073ffffffffffffffffffffffffffffffffffffffff166003600084815260200190815260200160002060008373ffffffffffffffffffffffffffffffffffffffff1673ffffffffffffffffffffffffffffffffffffffff16815260200190815260200160002060010160009054906101000a900473ffffffffffffffffffffffffffffffffffffffff1673ffffffffffffffffffffffffffffffffffffffff1614156108b3576040517f08c379a00000000000000000000000000000000000000000000000000000000081526004016108aa906128c6565b60405180910390fd5b600073ffffffffffffffffffffffffffffffffffffffff16600260008c73ffffffffffffffffffffffffffffffffffffffff1673ffffffffffffffffffffffffffffffffffffffff16815260200190815260200160002060010160019054906101000a900473ffffffffffffffffffffffffffffffffffffffff1673ffffffffffffffffffffffffffffffffffffffff161415610985576040517f08c379a000000000000000000000000000000000000000000000000000000000815260040161097c90612826565b60405180910390fd5b600073ffffffffffffffffffffffffffffffffffffffff16600260008d73ffffffffffffffffffffffffffffffffffffffff1673ffffffffffffffffffffffffffffffffffffffff16815260200190815260200160002060010160019054906101000a900473ffffffffffffffffffffffffffffffffffffffff1673ffffffffffffffffffffffffffffffffffffffff161415610a57576040517f08c379a0000000000000000000000000000000000000000000000000000000008152600401610a4e90612986565b60405180910390fd5b60006040518061010001604052808e81526020018d73ffffffffffffffffffffffffffffffffffffffff1681526020018c73ffffffffffffffffffffffffffffffffffffffff1681526020018b81526020018a8152602001898152602001888152602001878152509050806003600088815260200190815260200160002060008e73ffffffffffffffffffffffffffffffffffffffff1673ffffffffffffffffffffffffffffffffffffffff1681526020019081526020016000206000820151816000019080519060200190610b2e929190612077565b5060208201518160010160006101000a81548173ffffffffffffffffffffffffffffffffffffffff021916908373ffffffffffffffffffffffffffffffffffffffff16021790555060408201518160020160006101000a81548173ffffffffffffffffffffffffffffffffffffffff021916908373ffffffffffffffffffffffffffffffffffffffff1602179055506060820151816003019080519060200190610bd9929190612077565b506080820151816004019080519060200190610bf6929190612077565b5060a0820151816005019080519060200190610c13929190612077565b5060c0820151816006019080519060200190610c30929190612077565b5060e08201518160070155905050610c488c87611d8a565b7f1b2cf9192ff159a0857f42005efa4d396207762041b02376140ce1011888db24868d604051610c799291906129e1565b60405180910390a150505050505050505050505050565b60606000806060806060808873ffffffffffffffffffffffffffffffffffffffff16600360008a815260200190815260200160002060008b73ffffffffffffffffffffffffffffffffffffffff1673ffffffffffffffffffffffffffffffffffffffff16815260200190815260200160002060010160009054906101000a900473ffffffffffffffffffffffffffffffffffffffff1673ffffffffffffffffffffffffffffffffffffffff1614610d7c576040517f08c379a0000000000000000000000000000000000000000000000000000000008152600401610d73906128e6565b60405180910390fd5b3373ffffffffffffffffffffffffffffffffffffffff16600360008a815260200190815260200160002060008b73ffffffffffffffffffffffffffffffffffffffff1673ffffffffffffffffffffffffffffffffffffffff16815260200190815260200160002060010160009054906101000a900473ffffffffffffffffffffffffffffffffffffffff1673ffffffffffffffffffffffffffffffffffffffff161480610ec757503373ffffffffffffffffffffffffffffffffffffffff16600360008a815260200190815260200160002060008b73ffffffffffffffffffffffffffffffffffffffff1673ffffffffffffffffffffffffffffffffffffffff16815260200190815260200160002060020160009054906101000a900473ffffffffffffffffffffffffffffffffffffffff1673ffffffffffffffffffffffffffffffffffffffff16145b80610f33575060011515600460008a815260200190815260200160002060003373ffffffffffffffffffffffffffffffffffffffff1673ffffffffffffffffffffffffffffffffffffffff16815260200190815260200160002060009054906101000a900460ff161515145b610f72576040517f08c379a0000000000000000000000000000000000000000000000000000000008152600401610f6990612886565b60405180910390fd5b6000600360008a815260200190815260200160002060008b73ffffffffffffffffffffffffffffffffffffffff1673ffffffffffffffffffffffffffffffffffffffff16815260200190815260200160002060405180610100016040529081600082018054610fe090612bb5565b80601f016020809104026020016040519081016040528092919081815260200182805461100c90612bb5565b80156110595780601f1061102e57610100808354040283529160200191611059565b820191906000526020600020905b81548152906001019060200180831161103c57829003601f168201915b505050505081526020016001820160009054906101000a900473ffffffffffffffffffffffffffffffffffffffff1673ffffffffffffffffffffffffffffffffffffffff1673ffffffffffffffffffffffffffffffffffffffff1681526020016002820160009054906101000a900473ffffffffffffffffffffffffffffffffffffffff1673ffffffffffffffffffffffffffffffffffffffff1673ffffffffffffffffffffffffffffffffffffffff16815260200160038201805461111e90612bb5565b80601f016020809104026020016040519081016040528092919081815260200182805461114a90612bb5565b80156111975780601f1061116c57610100808354040283529160200191611197565b820191906000526020600020905b81548152906001019060200180831161117a57829003601f168201915b505050505081526020016004820180546111b090612bb5565b80601f01602080910402602001604051908101604052809291908181526020018280546111dc90612bb5565b80156112295780601f106111fe57610100808354040283529160200191611229565b820191906000526020600020905b81548152906001019060200180831161120c57829003601f168201915b5050505050815260200160058201805461124290612bb5565b80601f016020809104026020016040519081016040528092919081815260200182805461126e90612bb5565b80156112bb5780601f10611290576101008083540402835291602001916112bb565b820191906000526020600020905b81548152906001019060200180831161129e57829003601f168201915b505050505081526020016006820180546112d490612bb5565b80601f016020809104026020016040519081016040528092919081815260200182805461130090612bb5565b801561134d5780601f106113225761010080835404028352916020019161134d565b820191906000526020600020905b81548152906001019060200180831161133057829003601f168201915b505050505081526020016007820154815250509050806000015181602001518260400151836060015184608001518560a001518660c0015197509750975097509750975097505092959891949750929550565b60008073ffffffffffffffffffffffffffffffffffffffff16600260008573ffffffffffffffffffffffffffffffffffffffff1673ffffffffffffffffffffffffffffffffffffffff16815260200190815260200160002060010160019054906101000a900473ffffffffffffffffffffffffffffffffffffffff1673ffffffffffffffffffffffffffffffffffffffff1614611472576040517f08c379a0000000000000000000000000000000000000000000000000000000008152600401611469906129a6565b60405180910390fd5b60405180606001604052808381526020016000600181111561149757611496612c47565b5b81526020018473ffffffffffffffffffffffffffffffffffffffff16815250600260008573ffffffffffffffffffffffffffffffffffffffff1673ffffffffffffffffffffffffffffffffffffffff1681526020019081526020016000206000820151816000019080519060200190611511929190612077565b5060208201518160010160006101000a81548160ff0219169083600181111561153d5761153c612c47565b5b021790555060408201518160010160016101000a81548173ffffffffffffffffffffffffffffffffffffffff021916908373ffffffffffffffffffffffffffffffffffffffff1602179055509050507fc37330a6193f3b9e88961c5fbfa254648a2df8f3a1dfeac699a39346e6aed8d3836040516115bb91906126de565b60405180910390a16001905092915050565b6003600082815260200190815260200160002060008473ffffffffffffffffffffffffffffffffffffffff1673ffffffffffffffffffffffffffffffffffffffff16815260200190815260200160002060010160009054906101000a900473ffffffffffffffffffffffffffffffffffffffff1673ffffffffffffffffffffffffffffffffffffffff163373ffffffffffffffffffffffffffffffffffffffff16148061171857506003600082815260200190815260200160002060008473ffffffffffffffffffffffffffffffffffffffff1673ffffffffffffffffffffffffffffffffffffffff16815260200190815260200160002060020160009054906101000a900473ffffffffffffffffffffffffffffffffffffffff1673ffffffffffffffffffffffffffffffffffffffff163373ffffffffffffffffffffffffffffffffffffffff16145b611757576040517f08c379a000000000000000000000000000000000000000000000000000000000815260040161174e90612906565b60405180910390fd5b600115156004600083815260200190815260200160002060008473ffffffffffffffffffffffffffffffffffffffff1673ffffffffffffffffffffffffffffffffffffffff16815260200190815260200160002060009054906101000a900460ff161515146117fb576040517f08c379a00000000000000000000000000000000000000000000000000000000081526004016117f290612926565b60405180910390fd5b60006004600083815260200190815260200160002060008473ffffffffffffffffffffffffffffffffffffffff1673ffffffffffffffffffffffffffffffffffffffff16815260200190815260200160002060006101000a81548160ff0219169083151502179055508173ffffffffffffffffffffffffffffffffffffffff163373ffffffffffffffffffffffffffffffffffffffff167fba902a08600ceb8dc71dfa56e348c64befb8f475f0400ca35a51f0e7d51ad258836040516118c191906129c6565b60405180910390a3505050565b600073ffffffffffffffffffffffffffffffffffffffff16600260008473ffffffffffffffffffffffffffffffffffffffff1673ffffffffffffffffffffffffffffffffffffffff16815260200190815260200160002060010160019054906101000a900473ffffffffffffffffffffffffffffffffffffffff1673ffffffffffffffffffffffffffffffffffffffff1614156119a0576040517f08c379a000000000000000000000000000000000000000000000000000000000815260040161199790612946565b60405180910390fd5b6001808111156119b3576119b2612c47565b5b600260008473ffffffffffffffffffffffffffffffffffffffff1673ffffffffffffffffffffffffffffffffffffffff16815260200190815260200160002060010160009054906101000a900460ff166001811115611a1557611a14612c47565b5b14611a55576040517f08c379a0000000000000000000000000000000000000000000000000000000008152600401611a4c90612866565b60405180910390fd5b6003600082815260200190815260200160002060008473ffffffffffffffffffffffffffffffffffffffff1673ffffffffffffffffffffffffffffffffffffffff16815260200190815260200160002060010160009054906101000a900473ffffffffffffffffffffffffffffffffffffffff1673ffffffffffffffffffffffffffffffffffffffff163373ffffffffffffffffffffffffffffffffffffffff161480611ba057506003600082815260200190815260200160002060008473ffffffffffffffffffffffffffffffffffffffff1673ffffffffffffffffffffffffffffffffffffffff16815260200190815260200160002060020160009054906101000a900473ffffffffffffffffffffffffffffffffffffffff1673ffffffffffffffffffffffffffffffffffffffff163373ffffffffffffffffffffffffffffffffffffffff16145b611bdf576040517f08c379a0000000000000000000000000000000000000000000000000000000008152600401611bd690612966565b60405180910390fd5b600015156004600083815260200190815260200160002060008473ffffffffffffffffffffffffffffffffffffffff1673ffffffffffffffffffffffffffffffffffffffff16815260200190815260200160002060009054906101000a900460ff16151514611c83576040517f08c379a0000000000000000000000000000000000000000000000000000000008152600401611c7a90612806565b60405180910390fd5b60016004600083815260200190815260200160002060008473ffffffffffffffffffffffffffffffffffffffff1673ffffffffffffffffffffffffffffffffffffffff16815260200190815260200160002060006101000a81548160ff0219169083151502179055508173ffffffffffffffffffffffffffffffffffffffff163373ffffffffffffffffffffffffffffffffffffffff167f8c5be1e5ebec7d5bd14f71427d1e84f3dd0314c0f7b2291e5b200ac8c7c3b92583604051611d4991906129c6565b60405180910390a3505050565b6000611d69846000018460001b84611df7565b60001c90509392505050565b6000611d8382600001611e98565b9050919050565b611ddb81600560008573ffffffffffffffffffffffffffffffffffffffff1673ffffffffffffffffffffffffffffffffffffffff168152602001908152602001600020611ea990919063ffffffff16565b50611df281836006611ec39092919063ffffffff16565b505050565b60008084600101600085815260200190815260200160002054905060008114158390611e59576040517f08c379a0000000000000000000000000000000000000000000000000000000008152600401611e509190612714565b60405180910390fd5b5084600001600182611e6b9190612ad2565b81548110611e7c57611e7b612ca5565b5b9060005260206000209060020201600101549150509392505050565b600081600001805490509050919050565b6000611ebb836000018360001b611ef8565b905092915050565b6000611eef846000018460001b8473ffffffffffffffffffffffffffffffffffffffff1660001b611f68565b90509392505050565b6000611f048383612054565b611f5d578260000182908060018154018082558091505060019003906000526020600020016000909190919091505582600001805490508360010160008481526020019081526020016000208190555060019050611f62565b600090505b92915050565b600080846001016000858152602001908152602001600020549050600081141561200f5784600001604051806040016040528086815260200185815250908060018154018082558091505060019003906000526020600020906002020160009091909190915060008201518160000155602082015181600101555050846000018054905085600101600086815260200190815260200160002081905550600191505061204d565b82856000016001836120219190612ad2565b8154811061203257612031612ca5565b5b90600052602060002090600202016001018190555060009150505b9392505050565b600080836001016000848152602001908152602001600020541415905092915050565b82805461208390612bb5565b90600052602060002090601f0160209004810192826120a557600085556120ec565b82601f106120be57805160ff19168380011785556120ec565b828001600101855582156120ec579182015b828111156120eb5782518255916020019190600101906120d0565b5b5090506120f991906120fd565b5090565b5b808211156121165760008160009055506001016120fe565b5090565b600061212d61212884612a2f565b612a0a565b90508281526020810184848401111561214957612148612d08565b5b612154848285612b73565b509392505050565b60008135905061216b8161305e565b92915050565b600082601f83011261218657612185612d03565b5b813561219684826020860161211a565b91505092915050565b6000813590506121ae81613075565b92915050565b6000602082840312156121ca576121c9612d12565b5b60006121d88482850161215c565b91505092915050565b6000806000606084860312156121fa576121f9612d12565b5b60006122088682870161215c565b93505060206122198682870161215c565b925050604061222a8682870161219f565b9150509250925092565b6000806040838503121561224b5761224a612d12565b5b60006122598582860161215c565b925050602083013567ffffffffffffffff81111561227a57612279612d0d565b5b61228685828601612171565b9150509250929050565b600080604083850312156122a7576122a6612d12565b5b60006122b58582860161215c565b92505060206122c68582860161219f565b9150509250929050565b600080600080600080600080610100898b0312156122f1576122f0612d12565b5b600089013567ffffffffffffffff81111561230f5761230e612d0d565b5b61231b8b828c01612171565b985050602061232c8b828c0161215c565b975050604061233d8b828c0161215c565b965050606089013567ffffffffffffffff81111561235e5761235d612d0d565b5b61236a8b828c01612171565b955050608089013567ffffffffffffffff81111561238b5761238a612d0d565b5b6123978b828c01612171565b94505060a089013567ffffffffffffffff8111156123b8576123b7612d0d565b5b6123c48b828c01612171565b93505060c089013567ffffffffffffffff8111156123e5576123e4612d0d565b5b6123f18b828c01612171565b92505060e06124028b828c0161219f565b9150509295985092959890939650565b60006020828403121561242857612427612d12565b5b60006124368482850161219f565b91505092915050565b6000806040838503121561245657612455612d12565b5b60006124648582860161219f565b92505060206124758582860161215c565b9150509250929050565b61248881612b06565b82525050565b61249781612b18565b82525050565b6124a681612b61565b82525050565b60006124b782612a60565b6124c18185612a6b565b93506124d1818560208601612b82565b6124da81612d17565b840191505092915050565b60006124f2601c83612a6b565b91506124fd82612d28565b602082019050919050565b6000612515603883612a6b565b915061252082612d51565b604082019050919050565b6000612538602283612a6b565b915061254382612da0565b604082019050919050565b600061255b601a83612a6b565b915061256682612def565b602082019050919050565b600061257e603183612a6b565b915061258982612e18565b604082019050919050565b60006125a1601283612a6b565b91506125ac82612e67565b602082019050919050565b60006125c4601583612a6b565b91506125cf82612e90565b602082019050919050565b60006125e7601283612a6b565b91506125f282612eb9565b602082019050919050565b600061260a602d83612a6b565b915061261582612ee2565b604082019050919050565b600061262d601383612a6b565b915061263882612f31565b602082019050919050565b6000612650601683612a6b565b915061265b82612f5a565b602082019050919050565b6000612673602b83612a6b565b915061267e82612f83565b604082019050919050565b6000612696603983612a6b565b91506126a182612fd2565b604082019050919050565b60006126b9600d83612a6b565b91506126c482613021565b602082019050919050565b6126d881612b57565b82525050565b60006020820190506126f3600083018461247f565b92915050565b600060208201905061270e600083018461248e565b92915050565b6000602082019050818103600083015261272e81846124ac565b905092915050565b600060e0820190508181036000830152612750818a6124ac565b905061275f602083018961247f565b61276c604083018861247f565b818103606083015261277e81876124ac565b9050818103608083015261279281866124ac565b905081810360a08301526127a681856124ac565b905081810360c08301526127ba81846124ac565b905098975050505050505050565b600060608201905081810360008301526127e281866124ac565b90506127f1602083018561249d565b6127fe604083018461247f565b949350505050565b6000602082019050818103600083015261281f816124e5565b9050919050565b6000602082019050818103600083015261283f81612508565b9050919050565b6000602082019050818103600083015261285f8161252b565b9050919050565b6000602082019050818103600083015261287f8161254e565b9050919050565b6000602082019050818103600083015261289f81612571565b9050919050565b600060208201905081810360008301526128bf81612594565b9050919050565b600060208201905081810360008301526128df816125b7565b9050919050565b600060208201905081810360008301526128ff816125da565b9050919050565b6000602082019050818103600083015261291f816125fd565b9050919050565b6000602082019050818103600083015261293f81612620565b9050919050565b6000602082019050818103600083015261295f81612643565b9050919050565b6000602082019050818103600083015261297f81612666565b9050919050565b6000602082019050818103600083015261299f81612689565b9050919050565b600060208201905081810360008301526129bf816126ac565b9050919050565b60006020820190506129db60008301846126cf565b92915050565b60006040820190506129f660008301856126cf565b612a03602083018461247f565b9392505050565b6000612a14612a25565b9050612a208282612be7565b919050565b6000604051905090565b600067ffffffffffffffff821115612a4a57612a49612cd4565b5b612a5382612d17565b9050602081019050919050565b600081519050919050565b600082825260208201905092915050565b6000612a8782612b57565b9150612a9283612b57565b9250827fffffffffffffffffffffffffffffffffffffffffffffffffffffffffffffffff03821115612ac757612ac6612c18565b5b828201905092915050565b6000612add82612b57565b9150612ae883612b57565b925082821015612afb57612afa612c18565b5b828203905092915050565b6000612b1182612b37565b9050919050565b60008115159050919050565b6000819050612b328261304a565b919050565b600073ffffffffffffffffffffffffffffffffffffffff82169050919050565b6000819050919050565b6000612b6c82612b24565b9050919050565b82818337600083830152505050565b60005b83811015612ba0578082015181840152602081019050612b85565b83811115612baf576000848401525b50505050565b60006002820490506001821680612bcd57607f821691505b60208210811415612be157612be0612c76565b5b50919050565b612bf082612d17565b810181811067ffffffffffffffff82111715612c0f57612c0e612cd4565b5b80604052505050565b7f4e487b7100000000000000000000000000000000000000000000000000000000600052601160045260246000fd5b7f4e487b7100000000000000000000000000000000000000000000000000000000600052602160045260246000fd5b7f4e487b7100000000000000000000000000000000000000000000000000000000600052602260045260246000fd5b7f4e487b7100000000000000000000000000000000000000000000000000000000600052603260045260246000fd5b7f4e487b7100000000000000000000000000000000000000000000000000000000600052604160045260246000fd5b600080fd5b600080fd5b600080fd5b600080fd5b6000601f19601f8301169050919050565b7f416c7265616479206861732076696577696e6720726967687473212100000000600082015250565b7f54686520646f63746f7241646472657373206973206e6f74206e6f7468696e6760008201527f202c666972737420637265617465206120616464726573730000000000000000602082015250565b7f207265636f726420717565727920666f7220746865207a65726f20616464726560008201527f7373000000000000000000000000000000000000000000000000000000000000602082015250565b7f566965776e65722073686f756c64206265206120646f63746f72000000000000600082015250565b7f2074686520646f63746f7220616e64207468652075736572206861766520706560008201527f6d697373696f6e2063616e207669657720000000000000000000000000000000602082015250565b7f55736572206973206e6f7420646f63746f720000000000000000000000000000600082015250565b7f207265636f726420616c72656164792065786973740000000000000000000000600082015250565b7f207265636f7264206973206e6f7468696e670000000000000000000000000000600082015250565b7f4f6e6c792070617469656e7420616e6420646f63746f722063616e207265766f60008201527f726b207065726d697373696f6e00000000000000000000000000000000000000602082015250565b7f4e6f206e65656420746f207265766f6b65212100000000000000000000000000600082015250565b7f566965776e6572206e6f74207265676973746572656400000000000000000000600082015250565b7f4f6e6c792070617469656e7420616e6420646f63746f722063616e206769766560008201527f207065726d697373696f6e000000000000000000000000000000000000000000602082015250565b7f5468652070617469656e7441646472657373206973206e6f74206e6f7468696e60008201527f67202c6669727374206372656174652061206164647265737300000000000000602082015250565b7f416c726561647920657869737400000000000000000000000000000000000000600082015250565b6002811061305b5761305a612c47565b5b50565b61306781612b06565b811461307257600080fd5b50565b61307e81612b57565b811461308957600080fd5b5056fe206f776e657220717565727920666f72206e6f6e6578697374656e74207265636f7264a26469706673582212208fe98c36a0c6352aa0ceb42102bb9a4ce708cc54e7993cc265c0ef82a25dcbad64736f6c63430008070033",
  "immutableReferences": {},
  "source": "// SPDX-License-Identifier: MIT\npragma solidity >=0.5.16 <0.9.0;\n/// @title Identity Management In Healthcare\n/// @author Sodaba Oloumi - <sodaba.ulomi@gmail.com>\n///@notice Contract is deployed, tested and run on Rinkeby network.\n/// Allows Medical Record System to maintain records of patients in their network.\n/// Records can be accessed by doctor and patient .\n/// A patient's record can be shared ,The doctor and the patient themselves can allow the third person to see the record.\n\n\nimport \"./InterfacePatientRecords.sol\";\nimport \"./EnumerableMap.sol\";\nimport \"./EnumerableSet.sol\";\n\n\ncontract Healt is InterfacePatientRecords  {\n   using EnumerableSet for EnumerableSet.UintSet;\n   using EnumerableMap for EnumerableMap.UintToAddressMap;\n   \n   \n //  variables\n  address public owner = msg.sender;\n  uint userCount;\n  \n\n// enum\n  enum State{\n      Patient,\n      Doctor\n  }\n  // struct\n  struct User{\n      string fullName;\n      State state;\n      address userAddress;\n  }\n   struct Record{\n        string fullName;\n        address patientAddress;\n        address doctorAddress;\n        string cc;\n        string pi;\n        string comment;\n        string mh;\n        uint256 recordId;\n    }\n    /* \n   * Mapping\n   */\n     \n  mapping (address => User)public user;\n  \n  mapping (uint256 => mapping (address => Record))private record;\n  \n  // Mapping from record id to approved address\n  mapping (uint256 => mapping (address => bool)) public viewRecord;\n\n  // Mapping from holder address to their (enumerable) set of owned records\n    mapping (address => EnumerableSet.UintSet) private _holderRecords;\n\n    // Enumerable mapping from record ids to their owners\n    EnumerableMap.UintToAddressMap private _patientRecords;\n    \n  \n  \n  /* \n   * Events\n   */\n   /// @notice Emitted when a user is registred \n  /// @param user User address\n   event userAddition(address user);\n   \n    /// @notice Emitted when the doctor added a record to the patient's address\n  /// @param recordId record id\n  /// @param patientAddress patient address \n   event PatientRecordAdded(uint256 recordId, address patientAddress);\n   \n   \n  /// @notice Emitted when the doctor or patient permission the user to view patient's record\n  /// @param owner Owner address \n  /// @param viewer Viewer address \n  /// @param recordId record id \n   event Approval(address indexed owner, address indexed viewer, uint256 recordId);\n   \n   \n    /// @notice Emitted when the doctor or patient revork permission the user to view patient's record\n  /// @param owner Owner address \n  /// @param viewer Viewer address \n  /// @param recordId record id \n   event unApproval(address indexed owner, address indexed viewer, uint256 recordId);\n\n  \n\nconstructor() {\n         owner = msg.sender;\n         userCount =0;\n    \n    }\n\n  /* \n   * Modifiers\n   */\n\n   modifier isOwner () { \n    require (owner == msg.sender,'\"Caller is not owner\"' ); \n    _;\n  }\n\n  modifier verifyCaller (address _address) { \n    require (msg.sender == _address); \n    _;\n  }\n\n   modifier isDoctor(address _address){\n       \n       require(user[_address].state == State.Doctor,\"User is not doctor\");\n       _;\n   }\n   modifier isPatient(address _address){\n        \n       require(user[_address].state == State.Patient,\"User is not patient\");\n       _;\n   } \n   modifier recordExist(uint256 _recordId, address _address){\n       require(record[_recordId][_address].patientAddress != _address ,\n       \" record already exist\");\n      _;\n   }\n\n \n    /* \n   * Functions\n   */\n    \n     ///@notice  The addPatient function registred the new patient user\n     /// @param _patientAddress The adress of patient\n     /// @param _fullName The name of patient\n  function addPatient( address _patientAddress, string memory _fullName) public override returns (bool) {\n         // A user can only register once\n         require(user[_patientAddress].userAddress == address(0),\"Already exist\");\n    user[_patientAddress] = User({\n     fullName: _fullName, \n     state: State.Patient, \n     userAddress: _patientAddress\n    });\n   \n   emit userAddition(_patientAddress);\n    return true;\n  }\n  \n      ///@notice The addDoctor function registred the new doctor user\n     /// @param _doctorAddress The adress of doctor\n     /// @param _fullName The name of doctor\n  function addDoctor( address _doctorAddress, string memory _fullName) public override returns (bool) {\n    // A user can only register once\n    require(user[_doctorAddress].userAddress == address(0),\"Already exist\");\n    user[_doctorAddress] = User({\n     fullName: _fullName, \n     state: State.Doctor, \n     userAddress: _doctorAddress\n    });\n   \n   userCount = userCount + 1;\n   emit userAddition(_doctorAddress);\n    return true;\n  }\n      ///@notice Allows to add a patient record in the network.\n     /// Only a doctor can add record\n     /// modifiers to ckeck the user is doctor  \n     /// and check the user calling this function is the doctor\n  function addRecord(string memory _fullName,address _patientAddress , address _doctorAddress ,\n  string memory _cc ,string memory _pi ,string memory _comment ,\n  string memory _mh,uint256 _recordId ) public override isDoctor(_doctorAddress) \n  verifyCaller(_doctorAddress) recordExist(_recordId ,_patientAddress){\n     \n      require(user[_doctorAddress].userAddress != address(0), \"The doctorAddress is not nothing ,first create a address\");\n      require(user[_patientAddress].userAddress != address(0), \"The patientAddress is not nothing ,first create a address\");\n      \n      Record memory newRecord = Record( _fullName,_patientAddress,\n      _doctorAddress,_cc,_pi,_comment , _mh , _recordId );\n         record[_recordId][_patientAddress]=newRecord; \n      mint( _patientAddress , _recordId);   \n         \n      emit PatientRecordAdded(_recordId, _patientAddress);\n  }\n  /// @notice Gets the record of the patient.\n  function getRecord(address _address, uint256 _recordId)view public override\n  returns(string memory _fullName , address _doctorAddress,address _patientAddress,\n  string memory _cc , string memory _pi  ,string memory _comment,string memory _mh )\n  {\n      \n       require(record[_recordId][_address].patientAddress == _address \n      ,\" record is nothing\");\n      \n      // in 3 state we can get record 1: the patient \n      // 2: the doctor 3:  user who have Permission for view record.\n     require((record[_recordId][_address].patientAddress == msg.sender) || \n      (record[_recordId][_address].doctorAddress == msg.sender) ||\n      (viewRecord[_recordId][msg.sender] == true),\n      \" the doctor and the user have pemission can view \");\n      \n      // return the record of patient\n       Record memory s =record[_recordId][_address];\n       \n        return(s.fullName,s.patientAddress, s.doctorAddress,s.cc,s.pi,s.comment,s.mh );\n  }\n  \n  ///@notice doctor or  patient grand  permission the user to view the record. \n  function grantPermission(address _patientAddress,address _viewner, uint256 _recordId  )\n  public override\n   {\n       \n       // check the viewner is accsesed \n       require(user[_viewner].userAddress != address(0),\"Viewner not registered\");\n       //\n       require(user[_viewner].state == State.Doctor,\"Viewner should be a doctor\");\n       \n       // the person calling this function should be the patient or doctor \n    \n       require(( msg.sender == record[_recordId][_patientAddress].patientAddress)||\n       (msg.sender ==record[_recordId][_patientAddress].doctorAddress)\n       ,\"Only patient and doctor can give permission\");\n       \n       require(viewRecord[_recordId][_viewner] == false, \"Already has viewing rights!!\");\n       \n        viewRecord[_recordId][_viewner]= true;\n        \n        emit Approval(msg.sender, _viewner, _recordId);\n        \n    }\n    \n    //@notice doctor or  patient grand  permission the user to view the record \n  \n  function revorkPermission (address _patientAddress,address _viewner, \n  uint256 _recordId) public override{\n       \n       require(( msg.sender == record[_recordId][_patientAddress].patientAddress)||\n       (msg.sender ==record[_recordId][_patientAddress].doctorAddress)\n       ,\"Only patient and doctor can revork permission\");\n       require(viewRecord[_recordId][_viewner] == true, \"No need to revoke!!\");\n       \n      viewRecord[_recordId][_viewner]= false;\n      emit unApproval(msg.sender, _viewner, _recordId);\n  }\n   //with patient address get the  number of records.\n    function recordOf(address _address) public view  override returns (uint256) {\n        require(_address != address(0), \" record query for the zero address\");\n        return _holderRecords[_address].length();\n    }\n   // can get the owner of record with the record ID.\n   function ownerOfRecord(uint256 recordId) public view  override returns (address) {\n        return _patientRecords.get(recordId, \" owner query for nonexistent record\");\n}  \n   function mint(address _address ,uint256 _recordId)internal {\n     _holderRecords[_address].add(_recordId);\n         _patientRecords.set( _recordId,_address);\n   }\n\n    \n}\n",
  "sourcePath": "/home/sodaba/blockchain-developer-bootcamp-final-project/contracts/Healt.sol",
  "compiler": {
    "name": "solc",
    "version": "0.8.7+commit.e28d00a7.Emscripten.clang"
  },
  "schemaVersion": "3.4.3",
  "updatedAt": "2021-12-02T19:42:14.291Z",
  "devdoc": {
    "events": {
      "Approval(address,address,uint256)": {
        "params": {
          "owner": "Owner address ",
          "recordId": "record id ",
          "viewer": "Viewer address "
        }
      },
      "PatientRecordAdded(uint256,address)": {
        "params": {
          "patientAddress": "patient address ",
          "recordId": "record id"
        }
      },
      "unApproval(address,address,uint256)": {
        "params": {
          "owner": "Owner address ",
          "recordId": "record id ",
          "viewer": "Viewer address "
        }
      },
      "userAddition(address)": {
        "params": {
          "user": "User address"
        }
      }
    },
    "kind": "dev",
    "methods": {
      "addDoctor(address,string)": {
        "params": {
          "_doctorAddress": "The adress of doctor",
          "_fullName": "The name of doctor"
        }
      },
      "addPatient(address,string)": {
        "params": {
          "_fullName": "The name of patient",
          "_patientAddress": "The adress of patient"
        }
      }
    },
    "version": 1
  },
  "userdoc": {
    "events": {
      "Approval(address,address,uint256)": {
        "notice": "Emitted when the doctor or patient permission the user to view patient's record"
      },
      "PatientRecordAdded(uint256,address)": {
        "notice": "Emitted when the doctor added a record to the patient's address"
      },
      "unApproval(address,address,uint256)": {
        "notice": "Emitted when the doctor or patient revork permission the user to view patient's record"
      },
      "userAddition(address)": {
        "notice": "Emitted when a user is registred "
      }
    },
    "kind": "user",
    "methods": {
      "addDoctor(address,string)": {
        "notice": "The addDoctor function registred the new doctor user"
      },
      "addPatient(address,string)": {
        "notice": "The addPatient function registred the new patient user"
      },
      "addRecord(string,address,address,string,string,string,string,uint256)": {
        "notice": "Allows to add a patient record in the network. Only a doctor can add record modifiers to ckeck the user is doctor   and check the user calling this function is the doctor"
      },
      "getRecord(address,uint256)": {
        "notice": "Gets the record of the patient."
      },
      "grantPermission(address,address,uint256)": {
        "notice": "doctor or  patient grand  permission the user to view the record. "
      },
      "revorkPermission(address,address,uint256)": {
        "notice": "Allows a doctor and patient to revork permission of a user to view  the record for a patient."
      }
    },
    "version": 1
  }
}