{
  "contractName": "Healt",
  "abi": [
    {
      "inputs": [],
      "stateMutability": "nonpayable",
      "type": "constructor"
    },
    {
      "anonymous": false,
      "inputs": [
        {
          "indexed": true,
          "internalType": "address",
          "name": "owner",
          "type": "address"
        },
        {
          "indexed": true,
          "internalType": "address",
          "name": "viewer",
          "type": "address"
        },
        {
          "indexed": false,
          "internalType": "string",
          "name": "recordName",
          "type": "string"
        }
      ],
      "name": "Approval",
      "type": "event"
    },
    {
      "anonymous": false,
      "inputs": [
        {
          "indexed": false,
          "internalType": "string",
          "name": "recordName",
          "type": "string"
        },
        {
          "indexed": false,
          "internalType": "address",
          "name": "patientAddress",
          "type": "address"
        }
      ],
      "name": "PatientRecordAdded",
      "type": "event"
    },
    {
      "anonymous": false,
      "inputs": [
        {
          "indexed": false,
          "internalType": "address",
          "name": "user",
          "type": "address"
        }
      ],
      "name": "userAddition",
      "type": "event"
    },
    {
      "inputs": [],
      "name": "owner",
      "outputs": [
        {
          "internalType": "address",
          "name": "",
          "type": "address"
        }
      ],
      "stateMutability": "view",
      "type": "function"
    },
    {
      "inputs": [
        {
          "internalType": "address",
          "name": "",
          "type": "address"
        }
      ],
      "name": "user",
      "outputs": [
        {
          "internalType": "string",
          "name": "fullName",
          "type": "string"
        },
        {
          "internalType": "enum Healt.State",
          "name": "state",
          "type": "uint8"
        },
        {
          "internalType": "address",
          "name": "userAddress",
          "type": "address"
        }
      ],
      "stateMutability": "view",
      "type": "function"
    },
    {
      "inputs": [
        {
          "internalType": "string",
          "name": "",
          "type": "string"
        },
        {
          "internalType": "address",
          "name": "",
          "type": "address"
        }
      ],
      "name": "viewRecord",
      "outputs": [
        {
          "internalType": "bool",
          "name": "",
          "type": "bool"
        }
      ],
      "stateMutability": "view",
      "type": "function"
    },
    {
      "inputs": [
        {
          "internalType": "address",
          "name": "_address",
          "type": "address"
        },
        {
          "internalType": "string",
          "name": "_fullName",
          "type": "string"
        }
      ],
      "name": "addPatient",
      "outputs": [
        {
          "internalType": "bool",
          "name": "",
          "type": "bool"
        }
      ],
      "stateMutability": "nonpayable",
      "type": "function"
    },
    {
      "inputs": [
        {
          "internalType": "address",
          "name": "_address",
          "type": "address"
        },
        {
          "internalType": "string",
          "name": "_fullName",
          "type": "string"
        }
      ],
      "name": "addDoctor",
      "outputs": [
        {
          "internalType": "bool",
          "name": "",
          "type": "bool"
        }
      ],
      "stateMutability": "nonpayable",
      "type": "function"
    },
    {
      "inputs": [
        {
          "internalType": "string",
          "name": "_fullName",
          "type": "string"
        },
        {
          "internalType": "address",
          "name": "_patientAddress",
          "type": "address"
        },
        {
          "internalType": "address",
          "name": "_doctorAddress",
          "type": "address"
        },
        {
          "internalType": "string",
          "name": "_cc",
          "type": "string"
        },
        {
          "internalType": "string",
          "name": "_pi",
          "type": "string"
        },
        {
          "internalType": "string",
          "name": "_comment",
          "type": "string"
        },
        {
          "internalType": "string",
          "name": "_mh",
          "type": "string"
        },
        {
          "internalType": "string",
          "name": "_recordName",
          "type": "string"
        }
      ],
      "name": "addRecord",
      "outputs": [],
      "stateMutability": "nonpayable",
      "type": "function"
    },
    {
      "inputs": [
        {
          "internalType": "address",
          "name": "_address",
          "type": "address"
        },
        {
          "internalType": "string",
          "name": "_recordName",
          "type": "string"
        }
      ],
      "name": "getRecord",
      "outputs": [
        {
          "internalType": "string",
          "name": "_fullName",
          "type": "string"
        },
        {
          "internalType": "address",
          "name": "_doctorAddress",
          "type": "address"
        },
        {
          "internalType": "address",
          "name": "_patientAddress",
          "type": "address"
        },
        {
          "internalType": "string",
          "name": "_cc",
          "type": "string"
        },
        {
          "internalType": "string",
          "name": "_pi",
          "type": "string"
        },
        {
          "internalType": "string",
          "name": "_comment",
          "type": "string"
        },
        {
          "internalType": "string",
          "name": "_mh",
          "type": "string"
        }
      ],
      "stateMutability": "view",
      "type": "function"
    },
    {
      "inputs": [
        {
          "internalType": "address",
          "name": "_patientAddress",
          "type": "address"
        },
        {
          "internalType": "address",
          "name": "_viewner",
          "type": "address"
        },
        {
          "internalType": "string",
          "name": "_recordName",
          "type": "string"
        }
      ],
      "name": "grantPermission",
      "outputs": [],
      "stateMutability": "nonpayable",
      "type": "function"
    },
    {
      "inputs": [
        {
          "internalType": "address",
          "name": "_patientAddress",
          "type": "address"
        },
        {
          "internalType": "address",
          "name": "_viewner",
          "type": "address"
        },
        {
          "internalType": "string",
          "name": "_recordName",
          "type": "string"
        }
      ],
      "name": "revorkPermission",
      "outputs": [],
      "stateMutability": "nonpayable",
      "type": "function"
    }
  ],
  "bytecode": "0x6080604052336000806101000a81548173ffffffffffffffffffffffffffffffffffffffff021916908373ffffffffffffffffffffffffffffffffffffffff16021790555034801561005057600080fd5b50336000806101000a81548173ffffffffffffffffffffffffffffffffffffffff021916908373ffffffffffffffffffffffffffffffffffffffff1602179055506000600181905550612616806100a86000396000f3fe608060405234801561001057600080fd5b50600436106100935760003560e01c806381e7e20e1161006657806381e7e20e146101305780638da5cb5b14610162578063bbaf36b514610180578063db66c060146101b6578063f5a9b019146101e657610093565b806350065b9814610098578063658a0011146100c85780636b16553e146100e45780637cf1e44514610100575b600080fd5b6100b260048036038101906100ad9190611b37565b610202565b6040516100bf9190611ed2565b60405180910390f35b6100e260048036038101906100dd9190611b93565b610247565b005b6100fe60048036038101906100f99190611a6c565b610725565b005b61011a60048036038101906101159190611adb565b610aee565b6040516101279190611ed2565b60405180910390f35b61014a60048036038101906101459190611a3f565b610c5e565b60405161015993929190611fd1565b60405180910390f35b61016a610d3d565b6040516101779190611eb7565b60405180910390f35b61019a60048036038101906101959190611adb565b610d61565b6040516101ad9796959493929190611f3f565b60405180910390f35b6101d060048036038101906101cb9190611adb565b6114f2565b6040516101dd9190611ed2565b60405180910390f35b61020060048036038101906101fb9190611a6c565b61164f565b005b6004828051602081018201805184825260208301602085012081835280955050505050506020528060005260406000206000915091509054906101000a900460ff1681565b8560018081111561025b5761025a612323565b5b600260008373ffffffffffffffffffffffffffffffffffffffff1673ffffffffffffffffffffffffffffffffffffffff16815260200190815260200160002060010160009054906101000a900460ff1660018111156102bd576102bc612323565b5b146102fd576040517f08c379a00000000000000000000000000000000000000000000000000000000081526004016102f49061204f565b60405180910390fd5b868073ffffffffffffffffffffffffffffffffffffffff163373ffffffffffffffffffffffffffffffffffffffff161461033657600080fd5b600073ffffffffffffffffffffffffffffffffffffffff16600260008a73ffffffffffffffffffffffffffffffffffffffff1673ffffffffffffffffffffffffffffffffffffffff16815260200190815260200160002060010160019054906101000a900473ffffffffffffffffffffffffffffffffffffffff1673ffffffffffffffffffffffffffffffffffffffff161415610408576040517f08c379a00000000000000000000000000000000000000000000000000000000081526004016103ff9061202f565b60405180910390fd5b600073ffffffffffffffffffffffffffffffffffffffff16600260008b73ffffffffffffffffffffffffffffffffffffffff1673ffffffffffffffffffffffffffffffffffffffff16815260200190815260200160002060010160019054906101000a900473ffffffffffffffffffffffffffffffffffffffff1673ffffffffffffffffffffffffffffffffffffffff1614156104da576040517f08c379a00000000000000000000000000000000000000000000000000000000081526004016104d1906120ef565b60405180910390fd5b60006040518061010001604052808c81526020018b73ffffffffffffffffffffffffffffffffffffffff1681526020018a73ffffffffffffffffffffffffffffffffffffffff168152602001898152602001888152602001878152602001868152602001858152509050806003856040516105559190611ea0565b908152602001604051809103902060008c73ffffffffffffffffffffffffffffffffffffffff1673ffffffffffffffffffffffffffffffffffffffff16815260200190815260200160002060008201518160000190805190602001906105bc929190611917565b5060208201518160010160006101000a81548173ffffffffffffffffffffffffffffffffffffffff021916908373ffffffffffffffffffffffffffffffffffffffff16021790555060408201518160020160006101000a81548173ffffffffffffffffffffffffffffffffffffffff021916908373ffffffffffffffffffffffffffffffffffffffff1602179055506060820151816003019080519060200190610667929190611917565b506080820151816004019080519060200190610684929190611917565b5060a08201518160050190805190602001906106a1929190611917565b5060c08201518160060190805190602001906106be929190611917565b5060e08201518160070190805190602001906106db929190611917565b509050507f9a5d37c2375229a53861572fc892df32a454ed446cdc8dac87189cc1fa306e0a848b604051610710929190611f0f565b60405180910390a15050505050505050505050565b600073ffffffffffffffffffffffffffffffffffffffff16600260008473ffffffffffffffffffffffffffffffffffffffff1673ffffffffffffffffffffffffffffffffffffffff16815260200190815260200160002060010160019054906101000a900473ffffffffffffffffffffffffffffffffffffffff1673ffffffffffffffffffffffffffffffffffffffff1614156107c157600080fd5b6003816040516107d19190611ea0565b908152602001604051809103902060008473ffffffffffffffffffffffffffffffffffffffff1673ffffffffffffffffffffffffffffffffffffffff16815260200190815260200160002060010160009054906101000a900473ffffffffffffffffffffffffffffffffffffffff1673ffffffffffffffffffffffffffffffffffffffff163373ffffffffffffffffffffffffffffffffffffffff16148061092257506003816040516108849190611ea0565b908152602001604051809103902060008473ffffffffffffffffffffffffffffffffffffffff1673ffffffffffffffffffffffffffffffffffffffff16815260200190815260200160002060020160009054906101000a900473ffffffffffffffffffffffffffffffffffffffff1673ffffffffffffffffffffffffffffffffffffffff163373ffffffffffffffffffffffffffffffffffffffff16145b610961576040517f08c379a0000000000000000000000000000000000000000000000000000000008152600401610958906120cf565b60405180910390fd5b600015156004826040516109759190611ea0565b908152602001604051809103902060008473ffffffffffffffffffffffffffffffffffffffff1673ffffffffffffffffffffffffffffffffffffffff16815260200190815260200160002060009054906101000a900460ff16151514610a10576040517f08c379a0000000000000000000000000000000000000000000000000000000008152600401610a079061200f565b60405180910390fd5b6001600482604051610a229190611ea0565b908152602001604051809103902060008473ffffffffffffffffffffffffffffffffffffffff1673ffffffffffffffffffffffffffffffffffffffff16815260200190815260200160002060006101000a81548160ff0219169083151502179055508173ffffffffffffffffffffffffffffffffffffffff163373ffffffffffffffffffffffffffffffffffffffff167f1f84ad2a44b444ff59c84b14c29a0515df82fffbd26a5a923e601d8302872c9183604051610ae19190611eed565b60405180910390a3505050565b60006040518060600160405280838152602001600180811115610b1457610b13612323565b5b81526020018473ffffffffffffffffffffffffffffffffffffffff16815250600260008573ffffffffffffffffffffffffffffffffffffffff1673ffffffffffffffffffffffffffffffffffffffff1681526020019081526020016000206000820151816000019080519060200190610b8e929190611917565b5060208201518160010160006101000a81548160ff02191690836001811115610bba57610bb9612323565b5b021790555060408201518160010160016101000a81548173ffffffffffffffffffffffffffffffffffffffff021916908373ffffffffffffffffffffffffffffffffffffffff16021790555090505060018054610c17919061218c565b6001819055507fc37330a6193f3b9e88961c5fbfa254648a2df8f3a1dfeac699a39346e6aed8d383604051610c4c9190611eb7565b60405180910390a16001905092915050565b6002602052806000526040600020600091509050806000018054610c8190612291565b80601f0160208091040260200160405190810160405280929190818152602001828054610cad90612291565b8015610cfa5780601f10610ccf57610100808354040283529160200191610cfa565b820191906000526020600020905b815481529060010190602001808311610cdd57829003601f168201915b5050505050908060010160009054906101000a900460ff16908060010160019054906101000a900473ffffffffffffffffffffffffffffffffffffffff16905083565b60008054906101000a900473ffffffffffffffffffffffffffffffffffffffff1681565b60606000806060806060808873ffffffffffffffffffffffffffffffffffffffff16600389604051610d939190611ea0565b908152602001604051809103902060008b73ffffffffffffffffffffffffffffffffffffffff1673ffffffffffffffffffffffffffffffffffffffff16815260200190815260200160002060010160009054906101000a900473ffffffffffffffffffffffffffffffffffffffff1673ffffffffffffffffffffffffffffffffffffffff1614610e58576040517f08c379a0000000000000000000000000000000000000000000000000000000008152600401610e4f9061206f565b60405180910390fd5b3373ffffffffffffffffffffffffffffffffffffffff16600389604051610e7f9190611ea0565b908152602001604051809103902060008b73ffffffffffffffffffffffffffffffffffffffff1673ffffffffffffffffffffffffffffffffffffffff16815260200190815260200160002060010160009054906101000a900473ffffffffffffffffffffffffffffffffffffffff1673ffffffffffffffffffffffffffffffffffffffff161480610fb957503373ffffffffffffffffffffffffffffffffffffffff16600389604051610f329190611ea0565b908152602001604051809103902060008b73ffffffffffffffffffffffffffffffffffffffff1673ffffffffffffffffffffffffffffffffffffffff16815260200190815260200160002060020160009054906101000a900473ffffffffffffffffffffffffffffffffffffffff1673ffffffffffffffffffffffffffffffffffffffff16145b80611030575060011515600489604051610fd39190611ea0565b908152602001604051809103902060003373ffffffffffffffffffffffffffffffffffffffff1673ffffffffffffffffffffffffffffffffffffffff16815260200190815260200160002060009054906101000a900460ff161515145b5060006003896040516110439190611ea0565b908152602001604051809103902060008b73ffffffffffffffffffffffffffffffffffffffff1673ffffffffffffffffffffffffffffffffffffffff168152602001908152602001600020604051806101000160405290816000820180546110aa90612291565b80601f01602080910402602001604051908101604052809291908181526020018280546110d690612291565b80156111235780601f106110f857610100808354040283529160200191611123565b820191906000526020600020905b81548152906001019060200180831161110657829003601f168201915b505050505081526020016001820160009054906101000a900473ffffffffffffffffffffffffffffffffffffffff1673ffffffffffffffffffffffffffffffffffffffff1673ffffffffffffffffffffffffffffffffffffffff1681526020016002820160009054906101000a900473ffffffffffffffffffffffffffffffffffffffff1673ffffffffffffffffffffffffffffffffffffffff1673ffffffffffffffffffffffffffffffffffffffff1681526020016003820180546111e890612291565b80601f016020809104026020016040519081016040528092919081815260200182805461121490612291565b80156112615780601f1061123657610100808354040283529160200191611261565b820191906000526020600020905b81548152906001019060200180831161124457829003601f168201915b5050505050815260200160048201805461127a90612291565b80601f01602080910402602001604051908101604052809291908181526020018280546112a690612291565b80156112f35780601f106112c8576101008083540402835291602001916112f3565b820191906000526020600020905b8154815290600101906020018083116112d657829003601f168201915b5050505050815260200160058201805461130c90612291565b80601f016020809104026020016040519081016040528092919081815260200182805461133890612291565b80156113855780601f1061135a57610100808354040283529160200191611385565b820191906000526020600020905b81548152906001019060200180831161136857829003601f168201915b5050505050815260200160068201805461139e90612291565b80601f01602080910402602001604051908101604052809291908181526020018280546113ca90612291565b80156114175780601f106113ec57610100808354040283529160200191611417565b820191906000526020600020905b8154815290600101906020018083116113fa57829003601f168201915b5050505050815260200160078201805461143090612291565b80601f016020809104026020016040519081016040528092919081815260200182805461145c90612291565b80156114a95780601f1061147e576101008083540402835291602001916114a9565b820191906000526020600020905b81548152906001019060200180831161148c57829003601f168201915b5050505050815250509050806000015181602001518260400151836060015184608001518560a001518660c0015197509750975097509750975097505092959891949750929550565b600060405180606001604052808381526020016000600181111561151957611518612323565b5b81526020018473ffffffffffffffffffffffffffffffffffffffff16815250600260008573ffffffffffffffffffffffffffffffffffffffff1673ffffffffffffffffffffffffffffffffffffffff1681526020019081526020016000206000820151816000019080519060200190611593929190611917565b5060208201518160010160006101000a81548160ff021916908360018111156115bf576115be612323565b5b021790555060408201518160010160016101000a81548173ffffffffffffffffffffffffffffffffffffffff021916908373ffffffffffffffffffffffffffffffffffffffff1602179055509050507fc37330a6193f3b9e88961c5fbfa254648a2df8f3a1dfeac699a39346e6aed8d38360405161163d9190611eb7565b60405180910390a16001905092915050565b60038160405161165f9190611ea0565b908152602001604051809103902060008473ffffffffffffffffffffffffffffffffffffffff1673ffffffffffffffffffffffffffffffffffffffff16815260200190815260200160002060010160009054906101000a900473ffffffffffffffffffffffffffffffffffffffff1673ffffffffffffffffffffffffffffffffffffffff163373ffffffffffffffffffffffffffffffffffffffff1614806117b057506003816040516117129190611ea0565b908152602001604051809103902060008473ffffffffffffffffffffffffffffffffffffffff1673ffffffffffffffffffffffffffffffffffffffff16815260200190815260200160002060020160009054906101000a900473ffffffffffffffffffffffffffffffffffffffff1673ffffffffffffffffffffffffffffffffffffffff163373ffffffffffffffffffffffffffffffffffffffff16145b6117ef576040517f08c379a00000000000000000000000000000000000000000000000000000000081526004016117e69061208f565b60405180910390fd5b600115156004826040516118039190611ea0565b908152602001604051809103902060008473ffffffffffffffffffffffffffffffffffffffff1673ffffffffffffffffffffffffffffffffffffffff16815260200190815260200160002060009054906101000a900460ff1615151461189e576040517f08c379a0000000000000000000000000000000000000000000000000000000008152600401611895906120af565b60405180910390fd5b60006004826040516118b09190611ea0565b908152602001604051809103902060008473ffffffffffffffffffffffffffffffffffffffff1673ffffffffffffffffffffffffffffffffffffffff16815260200190815260200160002060006101000a81548160ff021916908315150217905550505050565b82805461192390612291565b90600052602060002090601f016020900481019282611945576000855561198c565b82601f1061195e57805160ff191683800117855561198c565b8280016001018555821561198c579182015b8281111561198b578251825591602001919060010190611970565b5b509050611999919061199d565b5090565b5b808211156119b657600081600090555060010161199e565b5090565b60006119cd6119c884612134565b61210f565b9050828152602081018484840111156119e9576119e86123b5565b5b6119f484828561224f565b509392505050565b600081359050611a0b816125c9565b92915050565b600082601f830112611a2657611a256123b0565b5b8135611a368482602086016119ba565b91505092915050565b600060208284031215611a5557611a546123bf565b5b6000611a63848285016119fc565b91505092915050565b600080600060608486031215611a8557611a846123bf565b5b6000611a93868287016119fc565b9350506020611aa4868287016119fc565b925050604084013567ffffffffffffffff811115611ac557611ac46123ba565b5b611ad186828701611a11565b9150509250925092565b60008060408385031215611af257611af16123bf565b5b6000611b00858286016119fc565b925050602083013567ffffffffffffffff811115611b2157611b206123ba565b5b611b2d85828601611a11565b9150509250929050565b60008060408385031215611b4e57611b4d6123bf565b5b600083013567ffffffffffffffff811115611b6c57611b6b6123ba565b5b611b7885828601611a11565b9250506020611b89858286016119fc565b9150509250929050565b600080600080600080600080610100898b031215611bb457611bb36123bf565b5b600089013567ffffffffffffffff811115611bd257611bd16123ba565b5b611bde8b828c01611a11565b9850506020611bef8b828c016119fc565b9750506040611c008b828c016119fc565b965050606089013567ffffffffffffffff811115611c2157611c206123ba565b5b611c2d8b828c01611a11565b955050608089013567ffffffffffffffff811115611c4e57611c4d6123ba565b5b611c5a8b828c01611a11565b94505060a089013567ffffffffffffffff811115611c7b57611c7a6123ba565b5b611c878b828c01611a11565b93505060c089013567ffffffffffffffff811115611ca857611ca76123ba565b5b611cb48b828c01611a11565b92505060e089013567ffffffffffffffff811115611cd557611cd46123ba565b5b611ce18b828c01611a11565b9150509295985092959890939650565b611cfa816121e2565b82525050565b611d09816121f4565b82525050565b611d188161223d565b82525050565b6000611d2982612165565b611d338185612170565b9350611d4381856020860161225e565b611d4c816123c4565b840191505092915050565b6000611d6282612165565b611d6c8185612181565b9350611d7c81856020860161225e565b80840191505092915050565b6000611d95601c83612170565b9150611da0826123d5565b602082019050919050565b6000611db8603883612170565b9150611dc3826123fe565b604082019050919050565b6000611ddb601283612170565b9150611de68261244d565b602082019050919050565b6000611dfe601283612170565b9150611e0982612476565b602082019050919050565b6000611e21602d83612170565b9150611e2c8261249f565b604082019050919050565b6000611e44601383612170565b9150611e4f826124ee565b602082019050919050565b6000611e67602b83612170565b9150611e7282612517565b604082019050919050565b6000611e8a603983612170565b9150611e9582612566565b604082019050919050565b6000611eac8284611d57565b915081905092915050565b6000602082019050611ecc6000830184611cf1565b92915050565b6000602082019050611ee76000830184611d00565b92915050565b60006020820190508181036000830152611f078184611d1e565b905092915050565b60006040820190508181036000830152611f298185611d1e565b9050611f386020830184611cf1565b9392505050565b600060e0820190508181036000830152611f59818a611d1e565b9050611f686020830189611cf1565b611f756040830188611cf1565b8181036060830152611f878187611d1e565b90508181036080830152611f9b8186611d1e565b905081810360a0830152611faf8185611d1e565b905081810360c0830152611fc38184611d1e565b905098975050505050505050565b60006060820190508181036000830152611feb8186611d1e565b9050611ffa6020830185611d0f565b6120076040830184611cf1565b949350505050565b6000602082019050818103600083015261202881611d88565b9050919050565b6000602082019050818103600083015261204881611dab565b9050919050565b6000602082019050818103600083015261206881611dce565b9050919050565b6000602082019050818103600083015261208881611df1565b9050919050565b600060208201905081810360008301526120a881611e14565b9050919050565b600060208201905081810360008301526120c881611e37565b9050919050565b600060208201905081810360008301526120e881611e5a565b9050919050565b6000602082019050818103600083015261210881611e7d565b9050919050565b600061211961212a565b905061212582826122c3565b919050565b6000604051905090565b600067ffffffffffffffff82111561214f5761214e612381565b5b612158826123c4565b9050602081019050919050565b600081519050919050565b600082825260208201905092915050565b600081905092915050565b600061219782612233565b91506121a283612233565b9250827fffffffffffffffffffffffffffffffffffffffffffffffffffffffffffffffff038211156121d7576121d66122f4565b5b828201905092915050565b60006121ed82612213565b9050919050565b60008115159050919050565b600081905061220e826125b5565b919050565b600073ffffffffffffffffffffffffffffffffffffffff82169050919050565b6000819050919050565b600061224882612200565b9050919050565b82818337600083830152505050565b60005b8381101561227c578082015181840152602081019050612261565b8381111561228b576000848401525b50505050565b600060028204905060018216806122a957607f821691505b602082108114156122bd576122bc612352565b5b50919050565b6122cc826123c4565b810181811067ffffffffffffffff821117156122eb576122ea612381565b5b80604052505050565b7f4e487b7100000000000000000000000000000000000000000000000000000000600052601160045260246000fd5b7f4e487b7100000000000000000000000000000000000000000000000000000000600052602160045260246000fd5b7f4e487b7100000000000000000000000000000000000000000000000000000000600052602260045260246000fd5b7f4e487b7100000000000000000000000000000000000000000000000000000000600052604160045260246000fd5b600080fd5b600080fd5b600080fd5b600080fd5b6000601f19601f8301169050919050565b7f416c7265616479206861732076696577696e6720726967687473212100000000600082015250565b7f54686520646f63746f7241646472657373206973206e6f74206e6f7468696e6760008201527f202c666972737420637265617465206120616464726573730000000000000000602082015250565b7f55736572206973206e6f7420646f63746f720000000000000000000000000000600082015250565b7f207265636f7264206973206e6f7468696e670000000000000000000000000000600082015250565b7f4f6e6c792070617469656e7420616e6420646f63746f722063616e207265766f60008201527f726b207065726d697373696f6e00000000000000000000000000000000000000602082015250565b7f4e6f206e65656420746f207265766f6b65212100000000000000000000000000600082015250565b7f4f6e6c792070617469656e7420616e6420646f63746f722063616e206769766560008201527f207065726d697373696f6e000000000000000000000000000000000000000000602082015250565b7f5468652070617469656e7441646472657373206973206e6f74206e6f7468696e60008201527f67202c6669727374206372656174652061206164647265737300000000000000602082015250565b600281106125c6576125c5612323565b5b50565b6125d2816121e2565b81146125dd57600080fd5b5056fea2646970667358221220084bd9e1fb8998ea4aa497bae7efca2e37a4db61f93e2669a9d7a3cc78c91dd364736f6c63430008070033",
  "immutableReferences": {},
  "source": "// SPDX-License-Identifier: MIT\npragma solidity >=0.5.16 <0.9.0;\n\ncontract Healt {\n //  variables\n  address public owner = msg.sender;\n  uint userCount;\n  \n\n// enum\n  enum State{\n      Patient,\n      Doctor\n  }\n  // struct\n  struct User{\n      string fullName;\n      State state;\n      address userAddress;\n  }\n   struct Record{\n        string fullName;\n        address patientAddress;\n        address doctorAddress;\n        string cc;\n        string pi;\n        string comment;\n        string mh;\n        string recordName;\n    }\n    \n    // mapping\n  mapping (address => User)public user;\n  \n  mapping (string => mapping (address => Record))private record;\n  \n  // Mapping from record name to approved address\n  mapping (string => mapping (address => bool)) public viewRecord;\n    \n  \n  \n  /* \n   * Events\n   */\n   event userAddition(address user);\n   event PatientRecordAdded(string recordName, address patientAddress);\n   event Approval(address indexed owner, address indexed viewer, string recordName);\n\n  \nconstructor(){\n    owner = msg.sender;\n    userCount =0;\n    \n}\n\n  /* \n   * Modifiers\n   */\n\n   modifier isOwner () { \n    require (owner == msg.sender,'\"Caller is not owner\"' ); \n    _;\n  }\n\n  modifier verifyCaller (address _address) { \n    require (msg.sender == _address); \n    _;\n  }\n\n   modifier isDoctor(address _address){\n       \n       require(user[_address].state == State.Doctor,\"User is not doctor\");\n       _;\n   }\n   modifier isPatient(address _address){\n        \n       require(user[_address].state == State.Patient,\"User is not patient\");\n       _;\n   } \n\n \n      //functions\n  function addPatient( address _address, string memory _fullName) public returns (bool) {\n   \n    user[_address] = User({\n     fullName: _fullName, \n     state: State.Patient, \n     userAddress: _address\n    });\n   \n   emit userAddition(_address);\n    return true;\n  }\n  function addDoctor( address _address, string memory _fullName) public returns (bool) {\n   \n    user[_address] = User({\n     fullName: _fullName, \n     state: State.Doctor, \n     userAddress: _address\n    });\n   \n   userCount = userCount + 1;\n   emit userAddition(_address);\n    return true;\n  }\n \n // \n // modifiers to ckeck the user is doctor  \n // and check the user calling this function is the doctor\n  function addRecord(string memory _fullName,address _patientAddress , address _doctorAddress ,\n  string memory _cc ,string memory _pi ,string memory _comment ,string memory _mh,\n  string memory _recordName) public isDoctor(_doctorAddress) verifyCaller(_doctorAddress){\n     \n      require(user[_doctorAddress].userAddress != address(0), \"The doctorAddress is not nothing ,first create a address\");\n      require(user[_patientAddress].userAddress != address(0), \"The patientAddress is not nothing ,first create a address\");\n      \n      Record memory newRecord = Record( _fullName,_patientAddress,\n      \n      _doctorAddress,_cc,_pi,_comment , _mh , _recordName );\n         record[_recordName][_patientAddress]=newRecord;\n         \n      emit PatientRecordAdded(_recordName, _patientAddress);\n  }\n  // getRecord\n//   function getRecord( string memory _recordName)\n//   view public isPatient(msg.sender)\n//   returns(string memory _fullName , address _doctorAddress,address _patientAddress,\n//   string memory _cc , string memory _pi  ,string memory _comment,string memory _mh)\n  \n//  {\n \n//       Record memory s =record[_recordName][msg.sender];\n       \n//         return(s.fullName,s.patientAddress, s.doctorAddress,s.cc,s.pi,s.comment,s.mh);\n//   }\n  // ViewPatientRecord\n  function getRecord(address _address,\n  string memory _recordName)view public\n  returns(string memory _fullName , address _doctorAddress,address _patientAddress,\n  string memory _cc , string memory _pi  ,string memory _comment,string memory _mh)\n  {\n      \n       require(record[_recordName][_address].patientAddress == _address \n      ,\" record is nothing\");\n      \n      // in 3 state we can get record 1: the patient is the owner of the record \n      // 2: be doctor an add record 3: have Permission for get record.\n      ((record[_recordName][_address].patientAddress == msg.sender )||(record[_recordName][_address].doctorAddress == msg.sender)||\n      (viewRecord[_recordName][msg.sender] == true),\" the doctor and the user have pemission can view \");\n      \n      // return the record of patient\n       Record memory s =record[_recordName][_address];\n       \n        return(s.fullName,s.patientAddress, s.doctorAddress,s.cc,s.pi,s.comment,s.mh);\n  }\n  \n  // grantPermission\n  \n  function grantPermission(address _patientAddress,address _viewner, string memory _recordName  )\n  public \n   {\n       \n       // check the viewner is accsesed \n       require(user[_viewner].userAddress != address(0));\n       \n       // the person calling this function is the patient or doctor ( just is the owner of the record\n       // or doctor can grant permission)\n    \n       require(( msg.sender == record[_recordName][_patientAddress].patientAddress)||\n       (msg.sender ==record[_recordName][_patientAddress].doctorAddress)\n       ,\"Only patient and doctor can give permission\");\n       \n       require(viewRecord[_recordName][_viewner] == false, \"Already has viewing rights!!\");\n       \n        viewRecord[_recordName][_viewner]= true;\n        \n        emit Approval(msg.sender, _viewner, _recordName);\n        \n    }\n    \n    //revorkPermission \n  \n  function revorkPermission (address _patientAddress,address _viewner, \n  string memory _recordName) public{\n       \n       require(( msg.sender == record[_recordName][_patientAddress].patientAddress)||\n       (msg.sender ==record[_recordName][_patientAddress].doctorAddress)\n       ,\"Only patient and doctor can revork permission\");\n       require(viewRecord[_recordName][_viewner] == true, \"No need to revoke!!\");\n       \n      viewRecord[_recordName][_viewner]= false;\n  }   \n\n    \n}\n",
  "sourcePath": "/home/sodaba/blockchain-developer-bootcamp-final-project/contracts/Healt.sol",
  "compiler": {
    "name": "solc",
    "version": "0.8.7+commit.e28d00a7.Emscripten.clang"
  },
  "schemaVersion": "3.4.3",
  "updatedAt": "2021-10-27T12:54:36.331Z",
  "devdoc": {
    "kind": "dev",
    "methods": {},
    "version": 1
  },
  "userdoc": {
    "kind": "user",
    "methods": {},
    "version": 1
  }
}